:020000040000FA
:10000000082000208D0400009504000097040000E3
:10001000990400009B0400009D0400000000000003
:100020000000000000000000000000009F0400002D
:100030000000000000000000A1040000A304000074
:10004000A5040000A5040000A5040000A50400000C
:10005000A5040000A5040000A5040000A5040000FC
:10006000A5040000A5040000A5040000A5040000EC
:10007000A5040000A5040000A5040000A5040000DC
:10008000A5040000A5040000A5040000A5040000CC
:10009000A5040000A5040000A5040000A5040000BC
:1000A000A5040000A5040000A5040000A5040000AC
:1000B000A5040000A50400000000000000000000EE
:1000C000A5040000A5040000A5040000A50400008C
:1000D000A5040000A50400000000000000000000CE
:1000E0000000000000000000000000000000000010
:1000F0000000000000000000000000000000000000
:1001000000000000000000000000000000000000EF
:1001100000000000000000000000000000000000DF
:10040000DFF80CD000F054F8004800471506000053
:1004100008200020401E00BF00BF00BF00BF00BF7B
:1004200000BF00BF00BF00BF00BF00BF00BF00BFD4
:1004300000BF00BF00BF00BF00BF00BF00BF00BFC4
:1004400000BF00BF00BF00BF00BF00BF00BF00BFB4
:1004500000BF00BF00BF00BF00BF00BF00BF00BFA4
:1004600000BF00BF00BF00BF00BF00BF00BF00BF94
:1004700000BF00BF00BF00BF00BF00BF00BF00BF84
:1004800000BF00BF00BFC5D17047000006488047CD
:1004900006480047FEE7FEE7FEE7FEE7FEE7FEE769
:1004A000FEE7FEE7FEE70000D504000001040000BF
:1004B000064C074D06E0E06840F0010394E80700B1
:1004C00098471034AC42F6D3FFF79EFF9406000025
:1004D000B406000070B53F483E490024091D00786D
:1004E0000A1D131D012506280BD10E78360708D1E9
:1004F0001678C6F30316032E03D11E7816F0F00FFC
:1005000002D0062806D011E03348016821F080713E
:1005100001600EE00E78360708D11678C6F3031690
:10052000032E03D11E7816F0F00F02D0062804D057
:1005300015E02A49032008600BE0087800070ED177
:100540001078C0F30310032809D1187810F0F00FC9
:1005500005D14FF08040C0F80C41C0F810411E4852
:100560007438016841F470010160BFF34F8FBFF32D
:100570006F8F4FF01021D1F80002002803DBD1F873
:100580000002002821DA164A156016480368002B7D
:10059000FCD01523C1F800320568002DFCD0C1F84D
:1005A000043201680029FCD0146001680029FCD0E5
:1005B000BFF34F8F0848F03801680B4A01F4E0613F
:1005C00011430160BFF34F8FFEE7094907480860F8
:1005D00070BD0000E00F00F0FCED00E0A005004061
:1005E00004E5014000E401400400FA050090D00356
:1005F0000000002002E008C8121F08C1002AFAD13A
:1006000070477047002001E001C1121F002AFBD192
:1006100070470000002003215FF0010505FA00F299
:1006200012F4F01F04D0820002F1A042C2F80017B9
:10063000401C2028F2D30D4F0D4E07F1040808F19D
:1006400004094FF4FA7A00243A68315D05FA01F0A2
:1006500020EA0201C8F800101040C9F80000504616
:1006600000F008F8641C042CEEDBECE704050050F5
:100670008E06000031B540F2E73404E0401E0090E1
:100680002046FFF7C7FE00980028F7D138BD1112A9
:1006900013140000B4060000000000200400000055
:1006A000F4050000B806000004000020042000004B
:0806B000040600000090D003D5
:0400000500000401F2
:00000001FF
