:020000040000FA
:1000000068400020A1040000A9040000AB04000027
:10001000AD040000AF040000B104000000000000C7
:10002000000000000000000000000000B304000019
:100030000000000000000000B5040000B70400004C
:10004000B9040000B9040000B9040000B9040000BC
:10005000B9040000B9040000B9040000B9040000AC
:10006000B9040000B9040000B9040000B90400009C
:10007000B9040000B9040000B9040000B90400008C
:10008000B9040000B9040000B9040000B90400007C
:10009000B9040000B9040000B9040000B90400006C
:1000A000B9040000B9040000B9040000B90400005C
:1000B000B9040000B90400000000000000000000C6
:1000C000B9040000B9040000B9040000B90400003C
:1000D000B9040000B90400000000000000000000A6
:1000E0000000000000000000000000000000000010
:1000F0000000000000000000000000000000000000
:1001000000000000000000000000000000000000EF
:1001100000000000000000000000000000000000DF
:1004000000F002F800F03CF80AA090E8000C8244EA
:100410008344AAF10107DA4501D100F031F8AFF2C7
:10042000090EBAE80F0013F0010F18BFFB1A43F0D2
:10043000010318477405000094050000103A24BF1A
:1004400078C878C1FAD8520724BF30C830C144BF39
:1004500004680C607047000000230024002500267B
:10046000103A28BF78C1FBD8520728BF30C148BF17
:100470000B6070471FB500F092FA1FBD10B510BD9C
:1004800000F031F81146FFF7F5FF00F03FFA00F0F9
:100490004FF803B4FFF7F2FF03BC00F057F8000079
:1004A0000948804709480047FEE7FEE7FEE7FEE708
:1004B000FEE7FEE7FEE7FEE7FEE700000448054929
:1004C000054A064B704700006D050000010400005E
:1004D000680000206840002068200020682000207C
:1004E000704770477047754600F02CF8AE4605001F
:1004F0006946534620F00700854618B020B5FFF73F
:10050000DDFFBDE820404FF000064FF000074FF040
:1005100000084FF0000B21F00701AC46ACE8C00921
:10052000ACE8C009ACE8C009ACE8C0098D4670472A
:1005300010B50446AFF300802046BDE81040FFF739
:10054000A8BF00000048704704000020014918209F
:10055000ABBEFEE7260002007047000001480249DA
:10056000086070470090D0030000002010B500F034
:10057000FBF828B172480068C0F342307149086046
:1005800000F02EF928B17048006820F080706E49A4
:10059000086000F043F948B100206C4908604FF052
:1005A0008041C1F810016749091F086000F072F925
:1005B00018B1032063496431086000F089F900280C
:1005C00055D063480068634908606148001D0068B1
:1005D000091D08605E4808300068091D08605C4815
:1005E0000C300068091D0860594810300068091D6A
:1005F0000860574814300068091D086054481830D6
:10060000006854492031086051481C300068091DB9
:1006100008604F4820300068091D08604C482430AD
:100620000068091D08604A4828300068091D0860F4
:1006300047482C300068091D086045483030006884
:10064000444940310860424834300068091D086060
:100650003F4838300068091D08603D483C3000685C
:10066000091D08603A4840300068091D0860364896
:100670007438006840F4700033497439086000BF72
:1006800000BF00BFBFF34F8F00BF00BF00BF00BF60
:1006900000BF00BFBFF36F8F00BF00BF00BF2E4879
:1006A000006800F0004030B92B48001D006800F0E1
:1006B0000040002840D001202849086000BF284899
:1006C00000680028FBD015202349086000BF24489B
:1006D00000680028FBD015211F48001D016000BFE5
:1006E0001F4800680028FBD000201C49086000BF9C
:1006F0001B4800680028FBD000BF00BF00BF00BF40
:1007000000BFBFF34F8F00BF00BF00BF0E48F038DF
:10071000006800F4E06013490843001D0A49F039FD
:10072000086000BF00BF00BFBFF34F8F00BF00BF16
:1007300000BF00BF00BFFDE7FFF710FF10BD0000C6
:10074000440200103C050040FCED00E00C010040BC
:100750000404001020C500400012001004E5014010
:1007600000E401400000FA051C480078062832D158
:100770001A48001D007800F00F0060BB17480830D1
:10078000007800F0F000302807D114480C300078D1
:1007900000F0F00008B901207047104808300078D8
:1007A00000F0F000402807D10C480C30007800F031
:1007B000F00008B90120EFE708480830007800F0A1
:1007C000F000502807D105480C30007800F0F00008
:1007D00008B90120E0E70020DEE70000E00F00F0AC
:1007E0000D480078062814D10B48001D007800F051
:1007F0000F0070B908480830007800F0F000302889
:1008000007D105480C30007800F0F00008B901204D
:1008100070470020FCE70000E00F00F01C48007863
:10082000062832D11A48001D007800F00F0060BB86
:1008300017480830007800F0F000302807D114483D
:100840000C30007800F0F00008B901207047104823
:100850000830007800F0F000402807D10C480C3038
:10086000007800F0F00008B90120EFE708480830F0
:10087000007800F0F000502807D105480C300078CF
:1008800000F0F00008B90120E0E70020DEE70000FA
:10089000E00F00F00D480078062814D10B48001D29
:1008A000007800F00F0070B908480830007800F0B8
:1008B000F000302807D105480C30007800F0F00037
:1008C00008B9012070470020FCE70000E00F00F0AD
:1008D0000D480078062814D10B48001D007800F060
:1008E0000F0070B908480830007800F0F000502878
:1008F00007D105480C30007800F0F00008B901205D
:1009000070470020FCE70000E00F00F04FF4FA739E
:100910004FF400301B490860400008604000086048
:10092000400008602DE04FF4003016490C39086093
:10093000184600F029F84FF40030124910390860C9
:100940004000091D0860184600F01EF84FF4802092
:100950000C49103908604000091D0860184600F075
:1009600013F84FF400200749103908604000091DB2
:100970000860184600F008F84FF48010014910395B
:100980000860D0E718050050002100E0491C00EB8A
:100990004002C2EBC012B1EBC20FF7D370474FF069
:1009A0004070E1EE100A7047C80900000000002006
:1009B000040000003C040000CC09000004000020FA
:0C09C00064400000580400000090D003C8
:0400000500000401F2
:00000001FF
