:1000000000000420B1070000E1070000E307000042
:10001000E5070000E7070000E9070000EB07000024
:10002000000000000000000000000000ED070000DC
:10003000EF07000000000000F1070000F3070000D8
:10004000000000000000000000000000F5070000B4
:1000500000000000F50700000000000000000000A4
:10006000F5070000F5070000F5070000F5070000A0
:1000700000000000F5070000F5070000F50700008C
:10008000F5070000F5070000000000000000000078
:10009000F5070000F5070000000000000000000068
:1000A000F50700000000000000000000F507000058
:1000B000F5070000F5070000F5070000F507000050
:1000C000F5070000F5070000F5070000F507000040
:1000D000F507000000000000F50700000000000028
:1000E000F507000000000000F50700000000000018
:1000F000F507000000000000000000000000000004
:1001000000000000F50700000000000000000000F3
:1001100000000000000000000000000000000000DF
:1001200000000000F50700000000000000000000D3
:1001300000000000000000000000000000000000BF
:10014000F5070000000000000000000000000000B3
:10015000000000000000000000000000000000009F
:10016000000000000000000000000000000000008F
:10017000000000000000000000000000000000007F
:10018000000000000000000000000000000000006F
:10040000BFF34F8F054BDB6803F4E0620349044BF5
:100410001343CB60BFF34F8F00BFFDE700ED00E05B
:100420000400FA05024B034A1A6000BF704700BF80
:10043000000000200090D00300B583B0002301939A
:100440000023019311E04FF47F024FF47F01019BE1
:10045000603351F833301946019B6033DB0013449D
:100460005B680B60019B01330193019BFF2B08D854
:100470004FF47F02019B603352F83330B3F1FF3FFA
:10048000E1D100F09FF80346002B04D100F08EF874
:100490000346002B3FD000BF3F4BD3F80034012B65
:1004A000FAD13D4B0122C3F8042500BF3A4BD3F8E3
:1004B0000034012BFAD100F085F80346002B0BD055
:1004C000364BDB69354A23F00103D36100BF324B61
:1004D000D3F80034012BFAD100F068F80346002B62
:1004E0000DD02E4B1B6A23F0FF032C4A43F0200350
:1004F000136200BF284BD3F80034012BFAD1264BEE
:100500000022C3F8042500BF234BD3F80034012B8D
:10051000FAD1FFF775FF00F063F80346002B09D00E
:100520004FF050230022C3F814214FF05023002233
:10053000C3F8182100F06DF80346002B06D0184BC5
:1005400001221A60174B0122C3F8782500F072F8D7
:100550000346002B06D0124B00221A60114B0122D9
:10056000C3F87825104BD3F88C300F4A43F440631E
:10057000C2F88C300C4BD3F888300B4A43F470032C
:10058000C2F88830BFF34F8FBFF36F8FFFF74AFF7A
:1005900000BF03B05DF804FB009003500080FF0033
:1005A000384A00500040005000ED00E0044B1B6A48
:1005B000B3F1FF3F01D1012300E00023184670474B
:1005C0000080FF00054BDB6903F00103002B01D025
:1005D000012300E000231846704700BF0080FF00A1
:1005E0004FF47F03D3F83031092B0FD14FF47F0341
:1005F000D3F83431012B01D1012308E04FF47F03FC
:10060000D3F83431022B01D1012300E00023184636
:1006100070474FF47F03D3F83031092B07D14FF4E3
:100620007F03D3F83431012B01D1012300E00023F3
:10063000184670474FF47F03D3F83031092B07D1A8
:100640004FF47F03D3F83431022B01D1012300E0B2
:100650000023184670470000354936480A1A02D070
:10066000072291438D46344934480A1A06D007229E
:10067000914381F30988022282F31488304831497A
:10068000314A00F043F831483149324A00F03EF82F
:1006900031483249324A00F039F832483249334A57
:1006A00000F034F832483349334A00F02FF8334829
:1006B0003349344A00F02AF833483449344A00F0C8
:1006C00025F834483449002200F02BF833483449E7
:1006D000002200F026F833483349091A082903DBC1
:1006E00000220260043001601F482049884205D082
:1006F0000268043003B4904703BCF7E70020864645
:10070000EC4600200021294A9047FEE7884207D0A6
:10071000521A05D0037801300B700131013AF9D13A
:100720007047884202D002700130FAE7704700003B
:100730000000042000FC032000000420000004202E
:100740009C0800000000002004000020F8070000C2
:10075000F80700009C0800009C0800000000002032
:10076000000000209C0800009C0800009C0800007D
:100770009C0800009C0800009C0800009C080000E9
:100780009C0800009C080000A00800000400002055
:1007900004000020040000200400002004000020C9
:1007A00004000020040000200404002021080000B0
:1007B0000648804706484FF00701884385460548AC
:1007C0008047054805490160FFF746BFF70700006D
:1007D000000004203904000008ED00E000000000E3
:1007E000FEE7FEE7FEE7FEE7FEE7FEE7FEE7FEE7E1
:0807F000FEE7FEE7FEE770479B
:1007F80084B001900023039302E0039B0133039329
:10080800019B4FF47A7202FB03F3039A9A42F4D3E2
:1008180000BF04B07047000000B583B04FF4FA730E
:1008280001931B4B04229A61194B08229A61184BB9
:1008380010229A61164B20229A61154B4FF0FF3215
:10084800DA600198FFF7D4FF114B4FF0FF329A603E
:100858000198FFF7CDFF0E4B0822DA600198FFF7E9
:10086800C7FF0B4B08229A60094B1022DA600198E7
:10087800FFF7BEFF064B10229A60054B2022DA6074
:100888000198FFF7B5FF024B20229A60D5E700BF19
:040898000025845063
:04089C000090D003F5
:04000003000007B141
:00000001FF
