:020000040000FA
:1000000060200020A1040000A9040000AB0400004F
:10001000AD040000AF040000B1040000B304000010
:10002000000000000000000000000000B504000017
:10003000B704000000000000B9040000BB04000089
:10004000BD040000BD04000000000000BD0400006D
:1000500000000000BD0400000000000000000000DF
:10006000BD040000BD040000BD040000BD0400008C
:10007000BD040000BD040000BD040000BD0400007C
:10008000BD040000BD0400000000000000000000EE
:1000900061050000BD040000000000000000000039
:1000A000BD040000BD040000BD040000BD0400004C
:1000B000BD040000BD040000BD040000BD0400003C
:1000C000BD040000BD040000BD040000BD0400002C
:1000D000BD04000000000000BD040000000000009E
:1000E000BD04000000000000BD040000BD040000CD
:1000F00000000000BD04000000000000BD0400007E
:10010000000000000000000000000000BD0400002E
:10011000BD04000000000000BD040000BD0400009C
:1001200000000000BD04000000000000000000000E
:1001300000000000000000000000000000000000BF
:1001400000000000000000000000000000000000AF
:10015000BD040000000000000000000000000000DE
:10016000000000000000000000000000000000008F
:10017000000000000000000000000000000000007F
:10018000000000000000000000000000000000006F
:10019000000000000000000000000000000000005F
:1004000000F002F800F03CF80AA090E8000C8244EA
:100410008344AAF10107DA4501D100F031F8AFF2C7
:10042000090EBAE80F0013F0010F18BFFB1A43F0D2
:10043000010318473C0300006C030000103A24BF7E
:1004400078C878C1FAD8520724BF30C830C144BF39
:1004500004680C607047000000230024002500267B
:10046000103A28BF78C1FBD8520728BF30C148BF17
:100470000B6070471FB500F06DF91FBD10B510BDC2
:1004800000F033F81146FFF7F5FF00F01DF900F01A
:1004900051F803B4FFF7F2FF03BC00F059F8000075
:1004A0000A4880470A480047FEE7FEE7FEE7FEE706
:1004B000FEE7FEE7FEE7FEE7FEE7FEE7FEE70000F9
:1004C00004480549054A064B7047000075050000C1
:1004D00001040000100004206020002010200420EF
:1004E00060000020704770477047754600F02CF898
:1004F000AE4605006946534620F00700854618B011
:1005000020B5FFF7DDFFBDE820404FF000064FF0BB
:1005100000074FF000084FF0000BAC46ACE8C009F4
:10052000ACE8C009ACE8C009ACE8C00921F007019B
:100530008D46704710B50446AFF300802046BDE8F5
:100540001040FFF7A6BF00000048704700000020E1
:1005500001491820ABBEFEE72600020070470000EC
:100560000348002101607A4801210170704700BFF3
:1005700040410150B0B53A4DAA6C3A4942F00202EE
:10058000AA64002201F5E8730BE053F83200013051
:1005900009D001EBC200D0F8D40153F83240013247
:1005A0002060FF2AF1D908682F4A072843D14B68F9
:1005B000022B2AD12D4829230360032303630868F3
:1005C000072838D14B68022B1FD12948294B0360DB
:1005D00001201060086807282DD14B68022B14D128
:1005E0002548002303600868072824D14B68022BA4
:1005F0000BD1224BD3F8EC02C00705D000201860C5
:1006000058600868072816D14B6823F001000228BB
:100610000BD11A4BD3F8EC02C00706D06FF00100E3
:10062000C3F8EC020868072805D14868022802BF11
:100630000E48652101606868114940F440606860B7
:10064000286840F470002860BFF34F8FBFF36F8FAE
:1006500010680C4A00F0010021FA00F01060B0BDF3
:1006600088ED00E03001FF00585500500C47005065
:10067000309503504400EFBE4C25035014510050F8
:100680000020A107000004200C480221C0F810152A
:1006900001210160D0F8FC100029FBD00021C0F836
:1006A000FC1007484FF48031016401602021C0F83C
:1006B000041204484FF48011016070470850005044
:1006C0000443015000E100E0154CFFF7DDFF4FF05F
:1006D0008058204640F8108F124D4FF000594FF0CF
:1006E00080474FF00046C0F80090076006604FF466
:1006F0007A70C4F80480A8474FF47A70C4F8008078
:10070000C4F80490A8474FF47A70C4F8009067606A
:10071000A8474FF47A7027606660A8472046E5E74F
:100720000825845029070000094A0849002313704E
:10073000C1F8400501208860086000E030BF1078F3
:100740000028FBD001204860704700BF00400150E6
:1007500008000420F1EE100A4FF6FF71C0F2C0311C
:1007600020EA010040F04070E1EE100A70470000FE
:10077000A007000000000420080000003C04000066
:10078000A0070000000000206020000058040000C6
:10079000A8070000080004200820000058040000FA
:0807A0000090D00300000000EE
:0400000500000401F2
:00000001FF
