:020000040000FA
:1000000030250020C9050000E3050000E5050000DB
:1000100000000000000000000000000000000000E0
:10002000000000000000000000000000E7050000E4
:100030000000000000000000E9050000EB050000E2
:10004000ED050000ED050000ED050000ED050000E8
:10005000ED05000000000000ED050000ED050000CA
:10006000ED050000ED050000ED050000ED050000C8
:10007000ED050000ED050000ED050000ED050000B8
:10008000ED050000ED050000ED050000ED050000A8
:10009000ED050000ED050000ED050000ED05000098
:1000A000ED050000ED05000000000000000000006C
:1000B0000000000000000000000000000000000040
:1000C0000348854600F052FB00480047D500000079
:1000D0003025002008B500F01DFA002001239B0206
:1000E000224A23A10090012000F0E6F9002001231C
:1000F0009B02224A22A10090022000F0DDF900209C
:1001000001239B02214A22A10090012000F0A4F9C2
:10011000002001239B02214A21A10090022000F02F
:100120009BF9002001239B02204A21A1009003207B
:1001300000F092F921A1002000F05FF915E0012400
:1001400011E064222149204600F055F8204908605A
:1001500008460068002805DD08461C49026820465C
:1001600000F0AAF8641C032CEBD3E8E7CC000020D5
:10017000446F776E4275666665723100CC0400206C
:10018000446F776E4275666665723200CC08002057
:10019000557042756666657231000000CC0C002017
:1001A000557042756666657232000000CC10002002
:1001B00055704275666665723300000048656C6C68
:1001C0006F20576F726C642100000000CC14002077
:1001D0000000002001460022002900D1704700BF26
:1001E0000878002800D102E0521C491CF8E700BF43
:1001F0001046F3E77047F7B582B006461746FFF79B
:10020000F9FF18207043EE49401805691820704323
:100210004018C0680090002001900098854224DDBD
:100220001820704340188068441BBC4201DA204605
:1002300000E03846044618207043E14A80184068C0
:1002400041192246039800F07FFA019800190190A5
:100250000398001903903F1B2D1918207043D849AB
:1002600040188068A84200D100250098441BBC4279
:1002700001DA204600E038460446002C11DD182043
:100280007043CF4A8018406841192246039800F015
:100290005BFA0198001901900398001903903F1B25
:1002A0002D190198002804D018207043C449401823
:1002B0000561019805B0F0BDF7B582B00446164659
:1002C000FFF798FF18206043BD4960394018007D52
:1002D0008007800F02281FD018206043401807694C
:1002E000182060434018C068381A451E002D04DAF3
:1002F00018206043401880684519AE420CDD182074
:100300006043AF4960394018007D8007800F0028A6
:1003100001D105B0F0BD2E46002E01D10020F8E736
:100320000020019000BF18206043A54960394018A3
:100330000769182060434018C068381A451E002D10
:1003400004DA18206043401880684519182060437B
:100350009B49603940188268182060434018C06883
:10036000101AA84201DD28460AE01820604394498B
:10037000603940188268182060434018C068101A1D
:100380000546B54201DA284600E030460546182108
:1003900061438B4A603A89184A6818216143884B47
:1003A000603BC918C96850182A46039900F0CCF977
:1003B000019840190190039840190390761B18206A
:1003C00060437F4960394018C06842191820604373
:1003D0004018C260182060434018C268182060436B
:1003E00040188068824204D10022182060434018DF
:1003F000C260002E97D101988BE770B505460C4678
:100400002046FFF7E7FE0646324621462846FFF71C
:1004100053FF70BD38B5012269460020FFF7EBFE9F
:100420000446012C02D16846007838BD0020C04344
:10043000FBE710B500BFFFF7EDFF0028FBDB10BDA9
:1004400010B5FFF7D7FE5E480469C068A04201D02E
:10045000012010BD0020FCE7F8B504460D46164605
:100460001F46FFF7C7FE564878380069A04220D9DA
:10047000002C15D018206043514960390D501820C8
:10048000604340184660182060434018876000228F
:100490001820604340180261182060434018C26071
:1004A00018216143464A603A89180698486100203D
:1004B000F8BD0020C043FBE7F8B504460D461646DC
:1004C0001F46FFF797FE3E4878384069A0421ED984
:1004D000002C14D01820604339490D501820604377
:1004E000401846601820604340188760002218209A
:1004F000604340180261182060434018C260182110
:1005000061432F4A8918069848610020F8BD0020F1
:10051000C043FBE710B5FFF76DFE10BD38B50446CC
:10052000FF20694608700A2C03DA204630304870F4
:1005300007E0102C04DA204637306946487000E0A6
:1005400038BD20480470022269460020FFF7B4FE3F
:1005500000BFF5E7F8B504460D46FF206946087070
:100560000A2C03DA20463030487009E0102C04DAF7
:10057000204637306946487002E00020C043F8BD8D
:10058000022269460020FFF797FE29460020FFF768
:1005900034FF06460A2C05DA0A48007830306946EE
:1005A000487006E0102C04DA0648007837306946B7
:1005B0004870022269460020FFF77EFE3046DEE7E3
:1005C0007C000020C40000200321094802680A437F
:1005D0000260084802680A430260074880470748EB
:1005E0000047FEE7FEE7FEE7FEE7FEE7FEE7000066
:1005F0002405004054050040D9060000C100000059
:1006000048484949086070474848008CC0B20128F2
:1006100012D14648808C0007000F00280CD14348B7
:10062000806AF0210840A02806D14048C06A0840EE
:10063000002801D1012070470020FCE73B48008CD6
:10064000C0B2012812D13948808C0007000F002861
:100650000CD13648806AF0210840402806D1334842
:10066000C06A0840002801D1012070470020FCE743
:100670002E48008CC0B201282CD12C48808C000759
:10068000000F002826D12948806AF0210840002860
:1006900006D12648C06A0840002801D101207047D1
:1006A0002248806AF0210840102806D11F48C06AFD
:1006B0000840002801D10120F1E71C48806AF021A0
:1006C0000840302806D11948C06A0840002801D1E6
:1006D0000120E4E70020E2E710B5FFF7C9FF00289A
:1006E00005D0134813494860C81313498861FFF7C0
:1006F000A5FF002802D0012010498860FFF784FF81
:1007000000280ED00E480068012807D00D480C497B
:10071000086000BF0A4800680128FBD1C0200849D2
:10072000486110BD0024F400C8000020C00F00F094
:10073000DFFF07C000050040006C004000060040DD
:1007400000EC06407593000003460B439B0703D063
:1007500009E008C9121F08C0042AFAD203E00B7886
:100760000370401C491C521EF9D27047064C0125EB
:10077000064E05E0E36807CC2B430C3C9847103449
:10078000B442F7D3FFF7A0FCBC070000DC07000071
:1007900002E008C8121F08C1002AFAD1704770474A
:1007A000002001E001C1121F002AFBD170470000A8
:1007B0005465726D696E616C00000000DC0700001A
:1007C00000000020CC00000090070000A8080000F6
:1007D000CC00002064240000A007000000000000FE
:1007E0005345474745522052545400000000000032
:1007F0000400000003000000B007000030150020D6
:1008000000040000000000000000000000000000E4
:1008100000000000000000000000000000000000D8
:1008200000000000000000000000000000000000C8
:1008300000000000000000000000000000000000B8
:1008400000000000000000000000000000000000A8
:100850000000000000000000B00700003019002078
:100860000004000000000000000000000000000084
:100870000000000000000000000000000000000078
:100880000000000000000000000000000000000068
:100890000000000000000000000000000000000058
:0808A000000000000024F40038
:04000005000000C136
:00000001FF
