:020000040000FA
:1000000068100020650100007F01000081010000F0
:1000100000000000000000000000000000000000E0
:10002000000000000000000000000000830100004C
:1000300000000000000000008501000087010000B2
:100040008901000089010000890100008901000088
:100050008901000000000000890100008901000002
:100060008901000089010000890100008901000068
:100070008901000089010000890100008901000058
:100080008901000089010000890100008901000048
:100090008901000089010000890100008901000038
:1000A000890100008901000000000000000000003C
:1000B0000000000000000000000000000000000040
:1000C00000F002F800F03EF80CA030C80838241800
:1000D0002D18A246671EAB4654465D46AC4201D180
:1000E00000F030F87E460F3E0FCCB6460126334274
:1000F00000D0FB1AA246AB46334318470403000066
:1001000024030000103A02D378C878C1FAD8520705
:1001100001D330C830C101D504680C6070470000BD
:100120000023002400250026103A01D378C1FBD813
:10013000520700D330C100D50B6070471FB51FBDFB
:1001400010B510BD00F03BF81146FFF7F7FF00F0C7
:1001500017F900F053F803B4FFF7F2FF03BC00F007
:1001600059F8000003210C4802680A4302600B485A
:1001700002680A4302600A4880470A480047FEE7CF
:10018000FEE7FEE7FEE7FEE7FEE700000648074958
:10019000074A084B70470000240500405405004002
:1001A00025020000C1000000680000206810002047
:1001B000680800206808002070477047704775463F
:1001C00000F024F8AE46050069465346C008C0005A
:1001D000854618B020B5FFF7D9FF60BC0027490855
:1001E000B6460026C0C5C0C5C0C5C0C5C0C5C0C5CF
:1001F000C0C5C0C5403D49008D46704710B5044696
:10020000C046C0462046FFF7A6FF10BD0048704715
:100210000400002001491820ABBEFEE726000200C2
:100220007047000010B500F04BF8002805D01048CA
:1002300010494860C8131049886100F025F800286B
:1002400002D001200D49886000F070F800280ED01F
:100250000B480068012807D00A480949086000BF18
:10026000074800680128FBD1C0200549486110BD3E
:10027000DFFF07C000050040006C004000060040A2
:1002800000EC0640759300000C48008CC0B20128B9
:1002900012D10A48808C0007000F00280CD10748B3
:1002A000806AF0210840402806D10448C06A08400E
:1002B000002801D1012070470020FCE7C00F00F0AA
:1002C0001948008CC0B201282CD11748808C000737
:1002D000000F002826D11448806AF0210840002829
:1002E00006D11148C06A0840002801D1012070479A
:1002F0000D48806AF0210840102806D10A48C06ADB
:100300000840002801D10120F1E70748806AF02168
:100310000840302806D10448C06A0840002801D1AE
:100320000120E4E70020E2E7C00F00F01348008C52
:10033000C0B201281FD11148808C0007000F00288F
:1003400019D10E48806AF0210840A02806D10B4838
:10035000C06A0840002801D1012070470748806A20
:10036000F0210840D02806D10448C06A084000287F
:1003700001D10120F1E70020EFE70000C00F00F0FD
:10038000FF23F5330120400517498861400088614B
:10039000400088614000886125E001204005124945
:1003A000C860184600F022F8012040050E49886018
:1003B0004000C860184600F019F8012080050A497D
:1003C00088604000C860184600F010F80120C005A1
:1003D000054988604000C860184600F007F8012011
:1003E000000601498860D8E700050050002100E0C0
:1003F000491C7D22D20042438A42F9D8704700004E
:10040000200400000000002004000000040100009F
:1004100024040000040000206410000020010000FB
:040420000024F400C0
:04000005000000C136
:00000001FF
