:020000040000FA
:10000000303D0020AD090000B5090000B70900002F
:10001000B9090000BB090000BD0900000000000094
:10002000000000000000000000000000BF09000008
:100030000000000000000000C1090000C30900002A
:10004000C5090000C5090000C5090000C509000078
:10005000C5090000C5090000C5090000C509000068
:10006000C5090000C5090000C5090000C509000058
:10007000C5090000C5090000C5090000C509000048
:10008000C5090000C5090000C5090000C509000038
:10009000C5090000C5090000C5090000C509000028
:1000A000C5090000C5090000C5090000C509000018
:1000B000C5090000C50900000000000000000000A4
:1000C000C5090000C5090000C5090000C5090000F8
:1000D000C5090000C5090000000000000000000084
:1000E0000000000000000000000000000000000010
:1000F0000000000000000000000000000000000000
:1001000000000000000000000000000000000000EF
:1001100000000000000000000000000000000000DF
:10040000DFF80CD000F06CFC004800471504000039
:10041000303D002008B500F064FA00204FF48063FE
:10042000224A23A10090012000F021FA00204FF47D
:100430008063224A22A10090022000F018FA0020D6
:100440004FF48063214A22A10090012000F0D0F9EE
:1004500000204FF48063214A21A10090022000F087
:10046000C7F900204FF48063204A21A100900320A7
:1004700000F0BEF921A1002000F088F915E0012468
:1004800011E064222149204600F054F82049086018
:1004900008460068002805DD08461C490268204619
:1004A00000F0AAF8641C032CEBD3E8E7CC00002092
:1004B000446F776E4275666665723100CC04002029
:1004C000446F776E4275666665723200CC08002014
:1004D000557042756666657231000000CC0C0020D4
:1004E000557042756666657232000000CC100020BF
:1004F00055704275666665723300000048656C6C25
:100500006F20576F726C642100000000CC14002033
:10051000000000200146002209B90020704700BFFA
:10052000087800B902E0521C491CF9E700BF1046E8
:10053000F4E770472DE9F047064688461746FFF76F
:10054000F8FF06EB4601F84800EBC100056906EB31
:100550004601F54800EBC100D0F80CA04FF00009AF
:10056000554524DD06EB4601EF4800EBC1008068ED
:10057000441BBC4201DA204600E03846044606EB44
:100580004602E94800EBC200406841192246404655
:1005900000F094FBA144A0443F1B254406EB460118
:1005A000E14800EBC1008068A84200D10025AAEB19
:1005B0000504BC4201DA204600E038460446002C1F
:1005C0000EDD06EB4602D84800EBC2004068411938
:1005D0002246404600F072FBA144A0443F1B254444
:1005E000B9F1000F05D006EB4601CF4800EBC10082
:1005F00005614846BDE8F0872DE9F0470446894685
:100600001646FFF796FF04EB4401C748603800EB3D
:10061000C100007D00F0030002282BD004EB440150
:10062000C148603800EBC100D0F8108004EB4401F1
:10063000BD48603800EBC100C068A8EB0000451E53
:10064000002D07DA04EB4401B748603800EBC10025
:1006500080680544AE420DDD04EB4401B2486038C9
:1006600000EBC100007D00F0030010B90020BDE8E0
:10067000F0872E460EB90020F9E7002700BF04EBF3
:100680004401A948603800EBC100D0F8108004EBA9
:100690004401A548603800EBC100C068A8EB000029
:1006A000451E002D07DA04EB44019F48603800EB3B
:1006B000C1008068054404EB44019B48603800EBAE
:1006C000C10004EB440281689748603800EBC20027
:1006D000C068081AA84201DD28460EE004EB440178
:1006E0009148603800EBC10004EB440281688E48F9
:1006F000603800EBC200C068081A0546B54201DA4E
:10070000284600E03046054604EB4402864960393D
:1007100001EBC20104EB44034A688349603901EBF1
:10072000C301C96850182A46494600F0C7FA2F4449
:10073000A944761B04EB44017B48603800EBC10000
:10074000C068411904EB44027748603800EBC200EE
:10075000C16004EB44017448603800EBC100C1681B
:1007600004EB44027048603800EBC20080688142AC
:1007700007D1002104EB44026B48603800EBC20053
:10078000C160002E7FF47BAF384670E770B5054638
:100790000C462046FFF7BEFE064632462146284656
:1007A000FFF72AFF70BD38B5012269460020FFF728
:1007B000C1FE0446012C02D19DF8000038BD4FF067
:1007C000FF30FBE710B500BFFFF7EDFF0028FBDBB4
:1007D00010BD10B5FFF7ADFE53487838D0F888400B
:1007E000D0F88400A04201D0012010BD0020FCE719
:1007F0002DE9F04104460D4616461F46DDF81880E7
:10080000FFF797FE484878380069A0422CD904B316
:1008100004EB44014448603840F8315004EB440193
:1008200000EBC100466004EB44013F48603800EB38
:10083000C1008760002104EB44023B48603800EBB4
:10084000C200016104EB44023748603800EBC2008B
:10085000C16004EB44013448603800EBC100C0F8CB
:1008600014800020BDE8F0814FF0FF30FAE72DE959
:10087000F04104460D4616461F46DDF81880FFF786
:1008800058FE294878384069A04227D9E4B104EBE2
:100890004401254840F8315004EB440100EBC1000D
:1008A000466004EB4401204800EBC1008760002152
:1008B00004EB44021C4800EBC200016104EB44025B
:1008C000194800EBC200C16004EB4401164800EB7C
:1008D000C100C0F814800020BDE8F0814FF0FF3067
:1008E000FAE710B5FFF725FE10BD38B50446FF2026
:1008F0008DF800000A2C05DA04F13000C0B28DF842
:10090000010008E0102C05DA04F13700C0B28DF8C0
:10091000010000E038BD054804700222694600204D
:10092000FFF76AFE00BFF5E77C000020C40000204E
:10093000F8B504460D46FF208DF800000A2C05DAB4
:1009400004F13000C0B28DF801000AE0102C05DA85
:1009500004F13700C0B28DF8010002E04FF0FF3023
:10096000F8BD022269460020FFF746FE2946002016
:10097000FFF70CFF06460A2C06DA0B4800783030E9
:10098000C0B28DF8010007E0102C05DA06480078A7
:100990003730C0B28DF80100022269460020FFF70F
:1009A0002BFE3046DCE70000C400002006488047EC
:1009B00006480047FEE7FEE7FEE7FEE7FEE7FEE744
:1009C000FEE7FEE7FEE700005F0B00000104000009
:1009D000B148B24908607047B1480078062814D180
:1009E000AF48001D007800F00F0070B9AC48083027
:1009F000007800F0F000502807D1A9480C300078AA
:100A000000F0F00008B9012070470020FCE7A4487E
:100A10000078062814D1A248001D007800F00F00CD
:100A200070B99F480830007800F0F000302807D1F6
:100A30009B480C30007800F0F00008B901207047A6
:100A40000020FCE796480078062832D19448001D23
:100A5000007800F00F0060BB91480830007800F08B
:100A6000F000302807D18E480C30007800F0F000FC
:100A700008B9012070478A480830007800F0F0007B
:100A8000402807D186480C30007800F0F00008B903
:100A90000120EFE782480830007800F0F00050288D
:100AA00007D17F480C30007800F0F00008B9012031
:100AB000E0E70020DEE77A480078062814D178487D
:100AC000001D007800F00F0070B9754808300078FC
:100AD00000F0F000302807D171480C30007800F0A9
:100AE000F00008B9012070470020FCE76C4800784E
:100AF000062832D16A48001D007800F00F0060BB64
:100B000067480830007800F0F000302807D16448CA
:100B10000C30007800F0F00008B901207047604800
:100B20000830007800F0F000402807D15C480C3015
:100B3000007800F0F00008B90120EFE758480830CD
:100B4000007800F0F000502807D155480C300078AC
:100B500000F0F00008B90120E0E70020DEE710B562
:100B6000FFF7C4FF28B14F480068C0F342304E4938
:100B70000860FFF7A0FF28B14C48006820F08070A3
:100B80004A490860FFF75EFF48B100204849086005
:100B90004FF08041C1F810014349091F0860FFF779
:100BA00036FF18B10320404964310860FFF714FF95
:100BB000002855D03F4800683F4908603D48001D67
:100BC0000068091D08603B4808300068091D08607E
:100BD00038480C300068091D08603648103000683D
:100BE000091D0860334814300068091D0860314849
:100BF000183000683049203108602E481C300068E9
:100C0000091D08602B4820300068091D086029482C
:100C100024300068091D0860264828300068091D36
:100C2000086024482C300068091D086021483030D5
:100C300000682149403108601E4834300068091DB1
:100C400008601C4838300068091D086019483C30AD
:100C50000068091D0860174840300068091D0860D9
:100C600012487438006840F4700010497439086004
:100C700000BF00BF00BFBFF34F8F00BF00BF00BF6A
:100C800000BF00BF00BFBFF36F8F00BF00BF00BF3A
:100C9000FFF79EFE10BD00000090D003C8000020AA
:100CA000E00F00F0440200103C050040FCED00E0C5
:100CB0000C0100400404001020C5004040EA01037C
:100CC0009B0703D009E008C9121F08C0042AFAD202
:100CD00003E011F8013B00F8013B521EF9D27047C6
:100CE000064C074D06E0E06840F0010394E8070079
:100CF00098471034AC42F6D3FFF786FB300D000066
:100D0000500D000002E008C8121F08C1002AFAD1E5
:100D100070477047002001E001C1121F002AFBD17B
:100D2000704700005465726D696E616C00000000D0
:100D3000500D000000000020CC000000040D000059
:100D40001C0E0000CC000020643C0000140D0000CC
:100D500000000000534547474552205254540000BC
:100D6000000000000400000003000000240D00004B
:100D7000301500200004000000000000000000000A
:100D80000000000000000000000000000000000063
:100D90000000000000000000000000000000000053
:100DA0000000000000000000000000000000000043
:100DB0000000000000000000000000000000000033
:100DC000000000000000000000000000240D0000F2
:100DD00030190020000400000000000000000000A6
:100DE0000000000000000000000000000000000003
:100DF00000000000000000000000000000000000F3
:100E000000000000000000000000000000000000E2
:0C0E100000000000000000000090D00373
:0400000500000401F2
:00000001FF
