:020000040000FA
:1000000008200020150400001D0400001F0400004B
:10001000210400002304000025040000000000006B
:1000200000000000000000000000000027040000A5
:1000300029040000000000002B0400002D04000033
:100040002F0400002F0400002F0400002F040000E4
:100050002F0400002F0400002F0400002F040000D4
:100060002F0400002F0400002F0400002F040000C4
:100070002F0400002F0400002F0400002F040000B4
:100080002F0400002F0400002F0400002F040000A4
:100090002F0400002F0400002F0400002F04000094
:1000A0002F0400002F0400002F0400002F04000084
:1000B0002F0400002F0400000000000000000000DA
:1000C0002F0400002F0400002F0400002F04000064
:1000D0002F0400002F0400002F0400002F04000054
:1000E0002F0400002F0400002F0400002F04000044
:1000F000000000002F0400000000000000000000CD
:1001000000000000000000000000000000000000EF
:1001100000000000000000000000000000000000DF
:1001200000000000000000000000000000000000CF
:1001300000000000000000000000000000000000BF
:10040000DFF80CD000F018F8004800478D05000018
:10041000082000200648804706480047FEE7FEE720
:10042000FEE7FEE7FEE7FEE7FEE7FEE7FEE7FEE7A4
:100430005D04000001040000064C074D06E0E06882
:1004400040F0010394E8070098471034AC42F6D31B
:10045000FFF7DAFFFC0500001C06000030B54FF086
:1004600080500021D0F830210124082A02D1D0F890
:10047000343113B1082A09D00BE04FF08042C2F8A2
:100480000C11C2F810112E4A116005E0D0F8343179
:1004900013B1082A04D006E02B4B2A4A1A6005E063
:1004A000D0F8343113B1082A08D00EE090F8583251
:1004B0002648026863F30302026002E0D0F83401C8
:1004C00018B9234A4FF4407010602248026842F481
:1004D00070020260BFF34F8FBFF36F8F4FF0102297
:1004E000D2F80002002803DBD2F80402002822DA46
:1004F000194B1C6019480468002CFCD01224C2F867
:1005000000420568002DFCD0C2F804420268002AAF
:10051000FCD0196001680029FCD0BFF34F8F0D4853
:100520007C3801680E4A01F4E06111430160BFF3B9
:100530004F8F00BFFDE70C490A48086030BD00003E
:1005400038050040488103008C560040E40E00400E
:100550004096024088ED00E004E5014000E40140DF
:100560000400FA050090D0030000002002E008C853
:10057000121F08C1002AFAD170477047002001E01D
:1005800001C1121F002AFBD17047000008B50021ED
:10059000164A012000FA01F313F4F03F02D0146868
:1005A0001C431460491C2029F4D3104E104C103EFB
:1005B000371D104D4FF0000907F1040C002233687D
:1005C00014F8028000FA08F121EA0308C7F8008055
:1005D0001940CCF800104946CDF80090491C009114
:1005E000A942FBDB521C042AE9DBE7E714050050B3
:1005F000F8050000C02709000D0E0F101C060000B2
:1006000000000020040000006C050000200600002F
:1006100004000020042000007C0500000090D003AE
:0400000500000401F2
:00000001FF
