:020000040000FA
:10C000003DB8F3960000000000020000087900002F
:10C010000000000000000000000000000000000020
:10C020000000000000000000000000000000000010
:10C030000000000000000000000000000000000000
:10C0400000000000000000000000000000000000F0
:10C0500000000000000000000000000000000000E0
:10C0600000000000000000000000000000000000D0
:10C0700000000000000000000000000000000000C0
:10C0800000000000000000000000000000000000B0
:10C0900000000000000000000000000000000000A0
:10C0A0000000000000000000000000000000000090
:10C0B0000000000000000000000000000000000080
:10C0C0000000000000000000000000000000000070
:10C0D0000000000000000000000000000000000060
:10C0E0000000000000000000000000000000000050
:10C0F0000000000000000000000000000000000040
:10C10000000000000000000000000000000000002F
:10C11000000000000000000000000000000000001F
:10C12000000000000000000000000000000000000F
:10C1300000000000000000000000000000000000FF
:10C1400000000000000000000000000000000000EF
:10C1500000000000000000000000000000000000DF
:10C1600000000000000000000000000000000000CF
:10C1700000000000000000000000000000000000BF
:10C1800000000000000000000000000000000000AF
:10C19000000000000000000000000000000000009F
:10C1A000000000000000000000000000000000008F
:10C1B000000000000000000000000000000000007F
:10C1C000000000000000000000000000000000006F
:10C1D000000000000000000000000000000000005F
:10C1E000000000000000000000000000000000004F
:10C1F000000000000000000000000000000000003F
:10C20000F82E002011DA00009D1401005DD8000016
:10C210005DD800005DD800005DD800005DD800004A
:10C220005DD800005DD800005DD8000025D8000072
:10C230005DD800005DD80000D1D7000025140100B2
:10C240008DD800008DD800008DD800008DD800005A
:10C250008DD800008DD800008DD800008DD800004A
:10C260008DD800008DD800008DD800008DD800003A
:10C270008DD800008DD800008DD800008DD800002A
:10C280008DD800008DD800008DD800008DD800001A
:10C290008DD800008DD800008DD800008DD800000A
:10C2A0008DD800008DD800008DD800008DD80000FA
:10C2B0008DD800008DD800008DD800008DD80000EA
:10C2C0008DD800008DD800008DD800008DD80000DA
:10C2D0008DD800008DD800008DD800008DD80000CA
:10C2E0008DD800008DD800008DD800008DD80000BA
:10C2F0008DD800008DD800008DD800008DD80000AA
:10C300008DD800008DD800008DD800008DD8000099
:10C310008DD800008DD800008DD800008DD8000089
:10C320008DD800008DD800008DD800008DD8000079
:10C330008DD800008DD800008DD800008DD8000069
:10C340008DD800007BB972B90029BEBF00204FF024
:10C35000004106E008BF00281CBF6FF000414FF00D
:10C36000FF3000F0C7B9ADF1080C6DE904CE00292B
:10C3700009DB002B1ADB00F04DF8DDF804E0DDE905
:10C38000022304B07047404261EB4101002B1BDBEC
:10C3900000F040F8DDF804E0DDE9022304B040429B
:10C3A00061EB4101524263EB43037047524263EB3E
:10C3B000430300F02FF8DDF804E0DDE9022304B0C8
:10C3C000404261EB41017047524263EB430300F08E
:10C3D00021F8DDF804E0DDE9022304B0524263EB0A
:10C3E0004303704753B94AB9002908BF00281CBF4E
:10C3F0004FF0FF314FF0FF3000F07CB9ADF1080C89
:10C400006DE904CE00F006F8DDF804E0DDE9022372
:10C4100004B070472DE9F0478C46089D04468A46D3
:10C42000002B4AD18A42174662D9B2FA82F64EB13F
:10C43000C6F1200E01FA06F3B740B44020FA0EFE12
:10C440004EEA030A4FEA1748230C1FFA87F9BAFB92
:10C45000F8FE08FB1EAA0EFB09F243EA0A439A42C1
:10C460000BD9FB180EF1FF312CBF012000209A429E
:10C4700002D9002800F02A818E469A1AA3B2B2FB94
:10C48000F8F008FB102200FB09F943EA0244A14539
:10C4900007D93C1900F1FF3302D2A14500F2108107
:10C4A0001846A4EB090440EA0E4000211DB1F440F7
:10C4B0000023C5E90043BDE8F0878B4208D9002D71
:10C4C00000F0F2800021C5E9000C0846BDE8F087C5
:10C4D000B3FA83F100294ED16345C0F0E88082426F
:10C4E00040F2E5800846002DE5D0C5E9004AE2E7C4
:10C4F00002B9FFDEB2FA82F6002E40F099808B1A64
:10C500004FEA124E1FFA82F801214FEA144CB3FB96
:10C51000FEF20EFB123008FB02F94CEA004CE1453A
:10C5200008D917EB0C0C02F1FF3302D2E14500F2FF
:10C53000CA801A46ACEB090CA3B2BCFBFEF00EFBA2
:10C5400010CC08FB00F843EA0C44A0450ED93C1976
:10C5500000F1FF332CBF4FF0010C4FF0000CA04551
:10C5600003D9BCF1000F00F0A8801846A4EB080422
:10C5700040EA02409AE7C1F120048B4002FA01FE32
:10C580000CFA01F6E24020FA04F72CFA04FC00FA57
:10C5900001F813433E431F0C320C1FFA83F9BCFB16
:10C5A000F7F007FB10CC00FB09FA42EA0C4CE2451D
:10C5B00008D913EB0C0C00F1FF3202D2E24500F275
:10C5C00089801046ACEB0A0CB6B2BCFBF7FA07FB4D
:10C5D0001ACC0AFB09F946EA0C42914506D99A1889
:10C5E0000AF1FF3601D291457AD8B2464AEA0040B4
:10C5F000A2EB0902A0FB0E67BA42B446B94602D3C9
:10C6000007D1B04505D2B6EB0E0C67EB030301383A
:10C610009946002D6BD0B8EB0C0362EB090202FACD
:10C6200004F4CB40CA4000211C43C5E9004242E764
:10C63000B740C6F1200201FA06F3B44021FA02FC29
:10C640004FEA174E20FA02F21FFA87F8BCFBFEF100
:10C650001A430EFB11CC01FB08F0130C43EA0C4CFF
:10C66000604507D917EB0C0C01F1FF3301D260458F
:10C6700033D81946ACEB000C92B2BCFBFEF00EFBBB
:10C6800010CC00FB08F342EA0C4C634507D917EBCA
:10C690000C0C00F1FF3201D2634525D81046ACEBFB
:10C6A000030340EA014130E72946284603E7841A9C
:10C6B0006CEB030301209A4615E702383C4455E72A
:10C6C00002383C44EDE6023ABC4433E7AEF1020ED8
:10C6D0003B44D2E602389C4474E70239BC44C9E7C3
:10C6E000AAF1020A1A4481E70238BC44D7E7294676
:10C6F000E1E600BF704700BF012213B50B4B00926B
:10C70000042101930A480B4B04F0BAFD02F078FBB8
:10C7100002F018FC00F070FB054C4FF47A7006F044
:10C72000ECFBA3690133A361F7E700BF8C3501007F
:10C73000280200209A3501000022044BC3F808218A
:10C74000C3F81021C3F80021704700BF00A00240C9
:10C750002DE9D04306F067FC42F20F768046894609
:10C760000027104C06F05FFCB0EB080261EB0903F8
:10C77000964277EB030303DAFFF7DEFF00200FE0BA
:10C78000D4F80831002BF7D1D4F81031002BF3D1B5
:10C79000D4F80031002BE5D001220320024B1A709F
:10C7A000BDE8D08300A00240AE2A002010B50124CD
:10C7B0000C49C1F80041FFF7BFFF4C60FFF7C8FF0D
:10C7C00038B9094B094A1B68934203D0224493426B
:10C7D00005D010BD064B1C704FF0FF30F9E7054B3C
:10C7E000F9E700BF00A00240480200200100005A03
:10C7F000AE2A0020AD2A0020014B1878704700BFF8
:10C80000AE2A0020014B1878704700BFAD2A0020E7
:10C81000014B1878704700BFAC2A00202DE9F04189
:10C82000002407212C4BC3F8A84804F5E07201341A
:10C83000202C43F82210F8D10222284B2848C3F8B4
:10C8400014250822C3F81C2540F08072C3F8102676
:10C850000025102104220126C3F81456C3F8906560
:10C86000C3F89825C3F8A015FFF766FFFFF764FF2C
:10C870006FF07F03DFF87880C37048F08073057035
:10C88000457086704360017244728572C572154F9F
:10C890000A2006F032FB3D600A2006F02EFB3E60C7
:10C8A0000A2006F02AFB3D600A2006F026FBFFF76F
:10C8B0004FFF0D4F054630B103234FF0FF353B705E
:10C8C0002846BDE8F081224608F10401074804F03B
:10C8D0003BFE3E70F4E700BF0030005000A0024075
:10C8E000D04D002010560050AC2A00208C2A002089
:10C8F0004802002070B5164D06462B78E3B12B7820
:10C90000032B19D000683269C0F30C04C4F500533E
:10C910009A4217D80F487169204404F015FEA4B15B
:10C92000707E70B1FFF708FF01220B4B5A60FFF7D2
:10C930000FFF20B103232B704FF0FF3001E00223E3
:10C940002B7070BD6FF00100FBE72046F9E700BFD8
:10C95000AC2A00204802002000A002402DE9F84F38
:10C96000434F80463B78022B69D1D0E9020150EA5F
:10C97000010379D098F818303E4C0BB100232360A6
:10C9800023683D4E03B93060326823681A4400239F
:10C99000994208BF904210D14FF000094FF0030BAD
:10C9A000364BA3F10C0AD8F81050A94517D32368C9
:10C9B000002B47D10020BDE8F88F2368002BEBD077
:10C9C000032531682E4B22681D6059609A60002350
:10C9D0002360FFF7EBFE0028DED03D702FE02268D9
:10C9E000A5EB0905C2F50052954228BF2568D8F885
:10C9F00014102068214B28BFC5F500552A4649442C
:10CA0000184404F0A1FD2268A94415442560226859
:10CA1000B2F5005FC7D331682268CAF800B0CAF81F
:10CA20000410CAF80820FFF7C1FE216832680A44E2
:10CA30003260002222600028B5D087F800B04FF0A5
:10CA4000FF30B8E798F81930002BB3D003253168D0
:10CA50000B4B22681D6059609A6000232360FFF72A
:10CA6000A5FE0028A6D0B8E76FF00100A3E700BF3D
:10CA7000AC2A00204402002058220020540200204A
:10CA800048020020F8B51546FFF756FE07234E1C56
:10CA9000321A174CB2F5803F236028BF4FF4803222
:10CAA000002388420BD3FBB16360FFF77FFE04468F
:10CAB00098B103224FF0FF300E4B1A70F8BD0133CE
:10CAC00044F8330004EBC30710447A60321AB2F51D
:10CAD000803F28BF4FF48032E3E7202206492846F2
:10CAE00004F032FD2046E9E76FF00100E6E700BF01
:10CAF00048020020AC2A00204C02002038B508492A
:10CB0000054603F091FF002304460022284605F065
:10CB10008BFD54EA000314BF0220002038BD00BF83
:10CB2000A63501002DE9F04DB2B080468C220021DF
:10CB30000FA804F036FD294B02220E9302AB10938E
:10CB400000260123002726498DF83C201A918DF8F4
:10CB50006C200EA904AA08F154008DF864301C92D0
:10CB60008DF89430CDE90267CDE9046705F0ADFAA0
:10CB7000044688BBDDE90223CDE9002313432BD013
:10CB8000DDE904AB5AEA0B0326D006AA5146009809
:10CB9000FFF778FF30B103F054FF0446204632B06F
:10CBA000BDE8F08D0F49404603F03EFF20220546C8
:10CBB00006A9404605F04EFD0B490543404603F0EB
:10CBC00033FF3B4605433246404605F02DFD55EA0E
:10CBD000000318BF0224E1E70324DFE7A9350100C1
:10CBE000AF350100B3350100A63501002DE9F0474E
:10CBF000E0B006464FF4A87200210CA804F0D1FC66
:10CC00004F4C504B03220C9304F110030F934FF43D
:10CC1000FC7316934C4B8DF834208DF8C4202022E1
:10CC2000189302233A92494A8DF864308DF8943073
:10CC30008DF8F43004F108033C923E934FF0FF323C
:10CC40004FF0FF330DF1080ACAE90023C4E90023BD
:10CC500000230DF104080127C8F8003023610022E9
:10CC600000233B4906F1540024913A4904F1200580
:10CC700030910DF110090CA90E95CDF868A08DF832
:10CC80008C7026948DF8BC70CDF8C890CDF8CC800F
:10CC90008DF81C71C4E9022305F017FA064620B18D
:10CCA0000326304660B0BDE8F087D4E90023591C64
:10CCB00008BFB2F1FF3FF3D06561274D52EA030090
:10CCC00029782ED179BBDAE90001013108BFB0F132
:10CCD000FF3F2776E4D0D8F80020202AE0D8C5E925
:10CCE0000160494605F10D002A732F7004F02CFCF9
:10CCF000D8F80020314602F10D002844C2F120028C
:10CD000004F04FFC22696B681344AA689342C7D8A9
:10CD10004FF0000204BF2A7001226B60627600238C
:10CD200008E00029BCD0002168688B4208BF82421D
:10CD300003D0012384F81832B3E700232376E1E718
:10CD400000000020E1350100E6350100F235010068
:10CD5000EA350100EE3501005C22002038B50E49AD
:10CD6000054603F061FE002200230446284605F034
:10CD70005BFC0A490443284603F056FE084B044373
:10CD80005A682846002305F040FC54EA000314BF0B
:10CD90000220002038BD00BFA6350100EA350100A1
:10CDA0005C22002038B50446FFF732FD0328054613
:10CDB00013D02046FFF71AFF80B90E4890F81832BA
:10CDC00023B12046BDE83840FFF7C8BF0369002BF8
:10CDD000F7D0012D03D0022D09D0062038BDFFF772
:10CDE00089FD0028EDD0BDE8384003F02ABEFFF7EA
:10CDF000B5FDF6E70000002013B5FFF70FFD002298
:10CE00000D4B0E481A70C3E901221A7302F0A0F804
:10CE100002220B4C0B4B0092019304210A4B20463B
:10CE200004F02EFAA36903F50073A361E36903F527
:10CE3000FC73E36102B010BD5C220020A84C00200E
:10CE40008C220020BA350100C23501002DE9F043E3
:10CE5000079C1CB920461460BDE8F0830325B4FB91
:10CE6000F5F505EB4507BC4218BF0135B5F1804F1C
:10CE700005D34FF0FF3313606FF00B00ECE7AD000C
:10CE800001358D4200D808B91560F5E70646002542
:10CE9000DFF8B4E0BD4231469C4606F1040603F1DA
:10CEA000030329D3A54222D20135A54228BF00237E
:10CEB0009CF80060244F38BF9CF801304FEAA60C64
:10CEC00017F80CC0A54281F800C007EB131C2FBF58
:10CED0003D239B0003F03C03FB5C36018B703D233C
:10CEE00006F030061CF80660CB704E700431081A4C
:10CEF000106000200870AFE713F803CC13F8021C91
:10CF00004FEAAC091EF809904FEA0C1C13F8018C8B
:10CF10000CF0300C06F8049C0EEB111919F80CC03B
:10CF2000890006F803CC01F03C010EEB981C1CF8BC
:10CF3000011008F03F0806F8021C1EF8081003351F
:10CF400006F8011CA6E700BF773601002DE9F04383
:10CF500000273C46BC46DDF81CE0DFF81081F445B4
:10CF6000654629D25E5D202E23D0AEEB0509B9F1CE
:10CF7000010F25D00D2E23D103EB050999F801905F
:10CF8000B9F10A0F12D065456CD13D2E02D101379F
:10CF9000022F67D816F0800F64D118F806607F2E34
:10CFA00060D03F2E01D8002F5CD1013405F1010C77
:10CFB000D5E70135AE45D5D124B91460002021E074
:10CFC0000A2EDFE7062604F0070CE40806FB0CFC3B
:10CFD00074430CF1070CE41B04EBDC0478B18C42C5
:10CFE0000DD80027014603263C46DFF880E0DFF835
:10CFF00080801D449D4207D1091A1160DEE76FF061
:10D000000B001460BDE8F08313F8019BA9F10A0C32
:10D010005FFA8CFCBCF1160F04D828FA0CFC1CF04B
:10D02000010FE7D11EF809C00134BCF1400F08BF61
:10D03000013E0CF03F0C042C4CEA8717DAD17EB18C
:10D040003C0C012E0C7002D101310024D2E7022EDB
:10D050004FEA17244C7016BF8F7002310331F4E78A
:10D060003446C7E76FF01500CCE700BFF735010085
:10D07000090040000B6801330B60014B1B68184727
:10D08000B44C00202DE9F04F85B00E9C9B46012C3E
:10D09000B8BF0124012B0CBF302320231646824643
:10D0A000884601250A270022DFF86C900293B6FB20
:10D0B000F9F301930AB9B1451CD8019B414603F12C
:10D0C0003000D04701220135019B013F09FB136667
:10D0D0000A23012FB9FBF3F9E9D1414606F13000EB
:10D0E000D047BBF1030F02D1641B002C0EDC05B04E
:10D0F000BDE8F08FBC42E7DBBBF1020FE4D841464C
:10D10000029803920135D047039ADDE7414620207B
:10D11000D047013CE9E700BF00CA9A3B014B1860C9
:10D12000704700BFB44C0020002313B502AC44F894
:10D13000043D02460B460348214603F0B8FE02B008
:10D1400010BD00BF75D000004FF02002EFF3118337
:10D1500082F31188BFF36F8F0121044AC2F8401592
:10D1600083F31188BFF36F8F002070470090035046
:10D1700008B504464FF02002EFF3118382F31188C3
:10D18000BFF36F8F04F050F9204600F0F7FC03481E
:10D1900004F003F800F05CFBFCE700BFC6360100BA
:10D1A00010B9024B1868704740697047AC220020E4
:10D1B00038B50546064B1C680CB9204638BD2946D3
:10D1C000206804F0A4F90028F7D06469F4E700BFF0
:10D1D000AC220020F8B5002207460E460A4D2C6806
:10D1E00024B95AB92E6000203760F8BD394620684E
:10D1F00004F08DF920B122466469F1E75661F2E747
:10D200006FF04400F1E700BFAC2200200A2838B5D7
:10D210000446074D04D1286843680D215B68984790
:10D2200028684368E1B25B689847204638BD00BF74
:10D23000B022002010B5044C204600F075FE2046B8
:10D24000BDE81040FFF76ABF0DD2000008B50448E2
:10D2500002F0E4F9034B1860FFF7ECFF002008BD73
:10D26000EF360100B022002070B50446064E451886
:10D27000AC4201D1002070BD306814F8011B436836
:10D280005B689847F4E700BFB822002007B502A901
:10D2900041F8040D024802F009FB03B05DF804FBFD
:10D2A000C84E00202DE9F047354D8AB0354C0DF1C0
:10D2B0000808206843685B6C3BB1984728B1206838
:10D2C00043681B6C0BB1984710B90AB0BDE8F087F2
:10D2D000206843685B6B002BEBD098470028E8D0B0
:10D2E000206843689B69002BE3D020224146984781
:10D2F00007460028DDD00026234CBE42D6DA2B7824
:10D3000018F8069073B9D4F800A0BAF1000F09D14B
:10D31000524601A91D4802F09BFAD0B10123C4F87E
:10D3200000A02B7095F800A0BAF1000F0BD1206877
:10D33000D0F80432B3F5007F10D3FFF7A7FF012325
:10D34000C4F800A02B70B9F10A0F10D100232B7084
:10D350000DE0019BC3F804022360E3E75A1CB9F116
:10D360000A0F0344C0F8042283F8049001D0013668
:10D37000C3E7074BC4F800A01B689847F7E700BF56
:10D38000AF2A0020B8220020B4220020C84E00207E
:10D39000BC2200200023014A04F0E5BA69D2000053
:10D3A000154B13B51860154802F038F9144B0446B4
:10D3B0001860F8B14368DB6A03B1984763681B6A79
:10D3C0000BB12046984763689B6933B101220DF188
:10D3D0000701204698470028F5D163682BB19B6C64
:10D3E0001BB1224607492046984763689B6A0BB1E8
:10D3F0002046984702B010BDBC220020F63601003E
:10D40000B8220020A5D2000008B5114B1A686AB1F5
:10D410004FF05022D2F80823D10707D500220D483B
:10D420001A6083685B7A0BB903F0DFFF0A4B1A6856
:10D4300062B14FF05022D2F80823920706D500229D
:10D4400006481A60BDE8084003F0CFBF08BD00BF22
:10D45000005100500C4E002004510050184E002086
:10D4600000220D4BC3F840214FF02002EFF3118151
:10D4700082F31188BFF36F8F084AD3F8040513684D
:10D48000C01A20F07F400344136081F31188BFF37A
:10D490006F8F03F091B800BF00500150D8220020D8
:10D4A00070B5184802F0BAF848B3436800211B6809
:10D4B0009847012600244FF480334FF40012124D98
:10D4C0003146C5F80845C5F84065C5F804330F4B2B
:10D4D00015201C600E4BC3F88021224600F020FA74
:10D4E000152000F00DFA20460A4B1E602E60D5F87C
:10D4F0000435334423F07F43C5F8403570BD4FF009
:10D50000FF30FBE7FD360100005001504051015053
:10D5100000E100E00850015070B5214EB0F1FF3F2E
:10D5200008BF30464FF02003EFF3118483F31188D6
:10D53000BFF36F8F1B491C4BD1F804251D680138C0
:10D54000531B23F07F4301352B4420EAE070B042A7
:10D55000D4BF18189819821A22F07F4220F07F4316
:10D56000022AC1F8403504D984F31188BFF36F8FC4
:10D5700070BDD1F804350D4AC31A23F07F435D1EF8
:10D58000954205D94FF40012094BC3F80021EBE78F
:10D59000012B02BF023020F07F40C1F84005E3E7D5
:10D5A000FEFFFF0000500150D8220020FEFF7F0048
:10D5B00000E100E04FF02002EFF3118382F31188C5
:10D5C000BFF36F8F064AD2F80405064A1268801A24
:10D5D00020F07F4083F31188BFF36F8F704700BF47
:10D5E00000500150D822002030B50D4B89B01C6886
:10D5F00008AB03F8190D0293012300220393CDE930
:10D60000051307238DF810208DF81C306368022263
:10D610005D6802A946232046A84709B030BD00BF77
:10D62000DC22002070B586B00E460DF107010546DC
:10D630001446FFF7D9FFC0B90D4B9DF807201868B5
:10D6400002AB0393022322EA060222438DF807204D
:10D650008DF808508DF8092004938DF81430436834
:10D6600001225C6803A94623A04706B070BD00BF35
:10D67000DC22002008B501F0D1FF024B1860002029
:10D6800008BD00BFDC220020014803F08DB800BFB8
:10D69000B833010008B530B143683BB1006802F00F
:10D6A0003BFA002008BD6FF4E040FBE70048F9E7D3
:10D6B000EA8FFFFF08B558B1436863B100684FF0C7
:10D6C000FF3102F0B7F90028044808BF002008BD68
:10D6D0006FF4E040FBE70248F9E700BFE98FFFFF86
:10D6E000EA8FFFFF38B5044618B90B4B0B485B684F
:10D6F0009847656855B115F00205206807D10146C5
:10D70000074802F0D3F825600023636038BD142277
:10D71000002103F046FFF7E7904D00201B37010082
:10D72000E022002010B5044618B9134B13485B687B
:10D7300098476368BBB92368ABB94FF0FF32214605
:10D740000F4802F085F808B923681BB90A4B0D4849
:10D750005B68984714220021206803F022FF636869
:10D7600043F002036360206805F059FA636843F0F0
:10D770000103636010BD00BF904D00201B37010006
:10D78000E02200204137010008B506494023064841
:10D79000142205F019FABDE808400449044803F0D2
:10D7A0003BB800BFFC220020E0220020D033010063
:10D7B000C033010004488168406A884203D00349AD
:10D7C0004FF080520A607047A029002004ED00E06D
:10D7D00012498A684FF028001044EFF3098C80E862
:10D7E000F01F202080F31188BFF36F8F0C4F4FF094
:10D7F00000664A6A8A603E60906F0023936780F3F8
:10D80000118804B5104603F050FEBDE8044002F153
:10D81000280090E8F01F8CF309887047A0290020A9
:10D8200004ED00E01EF0040F0CBFEFF30880EFF3EF
:10D830000980816911F8021C0229FFD001B503F0AB
:10D8400029FE01BD014910220A60704710ED00E079
:10D85000404080F3118830BF704700BF404080F3E4
:10D860001188DFF81CC0DCF800C01CF4006C0CBF91
:10D87000EFF30880EFF3098001B500F02DF901BD49
:10D8800004ED00E030BFFFF7FDBF00BF01B572B689
:10D890000B4A106A00281EBF0021116205F092F9A0
:10D8A00062B6EFF30580A0F110004FEAC000054911
:10D8B000014409C99847BDE80140034908470000F1
:10D8C000A02900204C300100B5D70000094A0A49C0
:10D8D000936809689867D96708494B6843F0805393
:10D8E0004B60002383F31188BFF36F8F9368D86F69
:10D8F000704700BFA02900200835010000ED00E0BE
:10D9000043B2002B08DB012200F01F0002FA00F0F6
:10D91000024A5B0942F82300704700BF00E100E0C3
:10D9200043B2002B01F10101A8BF03F160434FEAAC
:10D930004111B8BF054BC9B2ABBF03F5614300F05D
:10D940000F0083F800131954704700BF14ED00E076
:10D950002DE9F0418C18884617461E4604220A9B82
:10D960000999054605F013FB00220D49A4F1200397
:10D9700023F0070321F00101C5E91322C5E91B8744
:10D98000996106991E605960079999600899D96054
:10D990004FF08071D961AB64AA67BDE8F08100BF28
:10D9A000450E0100F8B505460C4617461E4600F028
:10D9B0002BF90B4B3C4428469D6024F0070403F0F0
:10D9C00074FD304684F3098863B64FF0000181F39B
:10D9D0001188BFF36F8F00210022002303F032FA79
:10D9E000A029002008B5084B084A23F07F03936064
:10D9F000BFF34F8FBFF36F8F01F050FE01F058FE61
:10DA000000F0CEF801F086FE00C2000000ED00E05C
:10DA100003F0D1FB202080F3118808484FF4006107
:10DA2000401880F30988EFF314800221084380F343
:10DA30001488BFF36F8FFFF7D5FF00003830002048
:10DA40000C4B9A6A9A6A9A6A920708D55A6B9A6A34
:10DA5000120604D518B19A6A22F080029A62002058
:10DA60009A6A9A6A9A6A9A6A42F0FF029A620870FF
:10DA7000704700BF00ED00E00D4B9A6A9A6A9A6AFF
:10DA8000920508D59A6B9A6A120404D518B19A6A5D
:10DA900022F400429A6200209A6A9A6AD205044AE5
:10DAA00058BF9B6A936A43F47F4393620870704740
:10DAB00000ED00E0074B00209A6A9A6A9A6A9A6A17
:10DAC0009A6A9A6A9A6A9A6A6FEA02426FEA1242FC
:10DAD0009A62704700ED00E013B500211F4A04462A
:10DAE00053688DF80710C3F30803033B032B33D8A7
:10DAF000DFE803F0022A2E27D36A9B072CD4D06AD2
:10DB000010F0804007D0164B1B7863B101200DF157
:10DB10000701FFF795FF9DF8073013B9214603F081
:10DB2000B7FC02B010BD0F4B1B782BB101200DF1DB
:10DB30000701FFF7A1FFEEE70B4B188880B2002822
:10DB4000E9D0FFF7B7FFE6E70DF107010020E0E7B6
:10DB50000DF107010020ECE70020DCE700ED00E01C
:10DB600028ED00E029ED00E02AED00E0024A5369CB
:10DB700043F010035361704700ED00E0BFF34F8F97
:10DB80000549064BCA6802F4E0621343CB60BFF359
:10DB90004F8F00BFFDE700BF00ED00E00400FA0575
:10DBA000002320210348C2180133412B82F80013BF
:10DBB000F9D1704700E100E038B505464FF0200389
:10DBC000EFF3118483F31188BFF36F8F05F0C0F971
:10DBD000284602F051FB0A4B9B68AB420BD1094B24
:10DBE0005A68C2F3080212B92046FFF76FFE5A685E
:10DBF00042F080525A602046BDE8384005F0CBB86C
:10DC0000A029002000ED00E010B50E4B88B0029373
:10DC10000D4B0E4C03930E4B08A8049302AB40F837
:10DC20001C3D0C4A2346012100F002F90023079312
:10DC3000094B0121E41A05A80593069400F002F9A6
:10DC400008B010BD0000002000000000000001200E
:10DC500006000100000000200000002010B50B6845
:10DC60000C7A23F01F0304F01F021A43CB686409E7
:10DC700023F01F03044943F0010343EA440388608F
:10DC8000CA600B6110BD00BF90ED00E02DE9F04FC0
:10DC90008046894614460027484D85B04F4507DA2F
:10DCA00058F827305E68C6B31F2E05D86FF01504EC
:10DCB000204605B0BDE8F08FF206F7D1D3F800A0FA
:10DCC0001AF01F0FF2D1504602F0C8FE834606EB51
:10DCD0000A00013802F0C2FE8345E7D11BF1160F9E
:10DCE000E4D0631E5B45E1DBC5F808B0E86858F88E
:10DCF0002710C5F808B02E6920F01F00D1E90032C6
:10DD00001A44984246F01F0602F1FF3A18D15645D0
:10DD100005D15FFA8BF003F0D0FB0137BEE7C5F801
:10DD200008B0EB6822F01F0203F01F031A43EA60F9
:10DD3000E0B203F0C2FB10F1160FB7D0441CECE7C1
:10DD4000C5F808B02A69013B23F01F0302F01F0247
:10DD500013435645E0B22B61EBD003F0AEFB10F15C
:10DD6000160FA3D0C5F808B0EA689DF80830013E48
:10DD700062F304038DF808302B699DF808205B08D6
:10DD800063F347128DF8082058F827200130D2E9B4
:10DD900000321344009323F01F031E44A6EB0A062F
:10DDA000C4B226F01F060F2C03963FF67FAF204625
:10DDB0006946FFF753FF0134AFE700BF90ED00E085
:10DDC0000522034B5A60BFF34F8FBFF36F8F70472D
:10DDD00090ED00E0BFF35F8F0022014B5A60704767
:10DDE00090ED00E070B50E4D2E68102E15D8002471
:10DDF000FFF7F0FF0B4B0C4A1A63A64205D10B4B01
:10DE00001E70FFF7DDFF002070BD6968204601EB42
:10DE10000411FFF723FF0134EFE74FF0FF30F3E782
:10DE20006433010090ED00E0AAFF4400B02A002016
:10DE300010B5034C2278FFF729FF207010BD00BFFA
:10DE4000B02A00202DE9F74F894607460026DFF863
:10DE50009080DFF890A0214C4E4519DAD7F804B035
:10DE6000BBF1000F36D03B681846019302F0F6FD77
:10DE7000019B05460BEB0300013802F0EFFD142374
:10DE8000854203FB06F306D06FF0150248F8032025
:10DE900003B0BDE8F08F15F1160F48F80350F7D026
:10DEA0009AF80020AA42F3DDA5604344A560E0682B
:10DEB000197B60F3040119732169187B490861F328
:10DEC00047101873E26822F01F025A60226922F09C
:10DED0001F021A6101360C37BEE700BF90ED00E06B
:10DEE000FC270020B02A002070B50C4B0E461C7891
:10DEF0000546234600210A4A0F2B0BDD094B191D4D
:10DF00001868FFF7ABFE224631462846BDE8704050
:10DF1000FFF7BCBE936011610133EDE7B02A00202A
:10DF200090ED00E0FC270020014B1860704700BF17
:10DF3000D84C002008B51248FFF79CFBF0B903F05D
:10DF40008CFAD8B903F095FAC0B9012003F096FA1B
:10DF5000A0B9012003F086FA80B9072003F06BFA1C
:10DF600060B91F2003F061FA40B9072003F06EFA90
:10DF700020B9BDE80840012003F063BA08BD00BF26
:10DF80006E3701000021014803F01CBD584F0020EE
:10DF9000084B01620360084B4360084B8360084BE9
:10DFA000C360084B0361084B4361084B83618B8955
:10DFB000C3617047EB150100B5160100871601001B
:10DFC0005516010031160100091601000116010065
:10DFD00000234360014B816003607047E716010036
:10DFE000F0B504460B4E0C4F93B000F10C05002128
:10DFF000284601F0D1FD014608B913B0F0BD09ABC8
:10E00000069304A801ABCDE90464CDE9073704F019
:10E010002DF9ECE7F4330100591701002DE9F04127
:10E0200004461E468846174600212C22069D03F012
:10E03000B8FA064BC4E90787C4E90965636004F1CF
:10E040000C00BDE8F04104F063BE00BFE1DF00005A
:10E0500010B504460C3004F063FE04F10803D3E865
:10E06000EF2F42F00101C3E8E01F0028F7D1D307EA
:10E0700005D42146BDE81040014804F051BE10BD52
:10E08000E02900202DE9F0410E4E0F4FDFF83C80D3
:10E090000021304601F080FD044608B9BDE8F0815A
:10E0A000D4F80422211D384603F0E7FB054620463C
:10E0B000FFF7ECF8002DEBD029464046FFF7C8FFEC
:10E0C000E6E700BF484F0020102800201828002055
:10E0D00013B50024064A2346064900940648FFF774
:10E0E0009DFF0648FFF75CF9204602B010BD00BF57
:10E0F000291801002F1801001828002001E1000054
:10E10000014608B50A4804F00BFE0A49D1E8EF3F82
:10E1100043F00102C1E8E02F0028F7D1DB0705D466
:10E12000BDE808400839044804F0FABD08BD00BF46
:10E13000484F0020E44C0020E02900202DE9F7435F
:10E140000A9D814616461F460C4699B340F60613B3
:10E150000221ADF802300B9A0DEB0100A84730BB4D
:10E160005CB3022273BA0DEB020101A8ADF80230D4
:10E1700003F0EAF999F800302A468DF806300321B9
:10E180000B9B01A803F05FFB88B901204FF0060844
:10E190000446361AA6B93B0A8DF804302A460B9B72
:10E1A000022101A88DF8057003F04DFBE8B103B022
:10E1B000BDE8F08341F20443CAE74FF00208E7E705
:10E1C000012E09EB040119D10B782A468DF8043091
:10E1D0003B0A8DF8053003210B9B01A88DF80670D2
:10E1E00003F031FB0028E2D101340B9A01211E48D3
:10E1F000A8470028DBD10C9B1C60D8E7022E1CD15D
:10E200000B782A468DF804304B7801A88DF805303C
:10E210003B0A8DF8063003210B9B03F014FB00280A
:10E22000C5D10B9B2A46012101A88DF8047003F08B
:10E230000AFB0028BBD10234D7E7032201A803F070
:10E2400083F90B9B2A46032101A803F0FCFA00285E
:10E25000ADD108F10408B8F17B0F04F10304A6F175
:10E26000030697DDC1E700BF18380100014B03EB3F
:10E2700040107047584F00208279044B03EB421343
:10E28000DB69C01A024BC01058437047584F00203A
:10E29000ABAAAAAA10B5094B827903EB42139B697A
:10E2A0000A685C6823689A4294BF0A600B60FFF7B3
:10E2B000E3FFD4E9002302FB003010BD584F0020DB
:10E2C0002DE9F34105460191164604F0ACFE0746E0
:10E2D0004FF02003EFF3118883F31188BFF36F8FA2
:10E2E0006B8A002B41D02A8A9A422CD900212846D9
:10E2F00001F052FC044630B388F31188BFF36F8FEE
:10E30000019B002B40D0731C012B06D904F08BFE1F
:10E31000C01BB04294BF361AB61BA379204F3246B9
:10E3200007EB43139B6901A91B6820461B689847AC
:10E330000546206148BBA079214607EB401004F058
:10E34000F4FC2C461CE06B8A5A1E6A8288F3118802
:10E35000BFF36F8F18222C8AE41AEB6902FB043496
:10E360000F4BED1A6D11A571CAE788F31188BFF341
:10E370006F8F3146284601F00FFC04460028BFD1BC
:10E38000204602B0BDE8F081236100230122236012
:10E39000A280A381019A2369E281A360F0E700BF14
:10E3A000584F0020F8B504460026144D04B9F8BDB6
:10E3B00023792768013BDBB22371002BF7D1216958
:10E3C00059B163799B0707D4A379204605EB431322
:10E3D0009B691B689B6898472661A079A66005EB3E
:10E3E00040135B6926601BB1204698473C46DDE739
:10E3F000214605EB401004F098FCF7E7584F002049
:10E40000074B03EB8000D0F8003223F44033C0F810
:10E410000032D0F8003243EA0141C0F800127047E0
:10E4200000258450F8B5036801F01F049B680D4671
:10E430001B79494944EA43140023D1F80423866830
:10E44000D2B203F5A27051F82000C0F30420844238
:10E4500067D122FA03F0C00763D59A0002F1A04207
:10E4600002F55042D2F8100520F00100C2F8100564
:10E47000012202FA03F3C1F8083320460021FFF716
:10E48000BFFFB068E84010F0010049D0F068E840F4
:10E4900010F0010044D07069E84010F001024CD047
:10E4A000B369EB40DB0740D4336923FA05F2F36923
:10E4B00023FA05F505F0010502F00103AB420CBF9C
:10E4C000022501250021244E01F5A27356F82300F0
:10E4D00010F003002BD18B0003F1A04303F550474C
:10E4E000D7F81025240222F4473222F44072C7F8EC
:10E4F0001025D7F8102504F4F85444EA054503F52F
:10E5000051431543C7F810551860D7F8103543F03C
:10E510000103C7F81035012303FA01F1C6F804130B
:10E52000F8BD0133082B8CD1A7E70325CAE70131D9
:10E530000829C9D16FF01200F2E7F169336920466A
:10E540004B4023FA05F515F0010F0CBF0321022102
:10E55000FFF756FF1046E3E700D0005008B5094B1F
:10E560001A786AB901210D2019700521FFF7D8F931
:10E570000D20FFF7C5F94FF00042034BC3F8042309
:10E58000002008BDB12A002000D000502DE9F74F2F
:10E590008046856803F47040B0F5804F1E4649D030
:10E5A0002CDCB0F5805F3DD0B0F5405F3ED060BB65
:10E5B00006F44077B7F5807F3ED0A7F5007463423C
:10E5C0006341012919BFD4B2A1464FF01F090024AD
:10E5D0004FF0010B06F0010C4FEA4C0747EA0C071D
:10E5E00047EA0020DFF8C8A040EA830706F00203EC
:10E5F000A14523D2002003B0BDE8F08FB0F5E04F75
:10E6000016D005DCB0F5A04F0ED06FF01500F2E784
:10E61000B0F5404F04D0B0F5504FF6D10720C7E712
:10E620000620C5E70120C3E70320C1E70420BFE7B8
:10E630000520BDE70220BBE70323C2E7D8F800208E
:10E640009268117904F01F0242EA411280324AF8BE
:10E650002270A9680BFA04F2002B25D01143A9609F
:10E660006969B0064CBF114391436961A96970069D
:10E670004CBF11439143A961296970074CBF1143F5
:10E6800091432961E96930064CBF0A4321EA02023D
:10E69000EA61214640460193FFF7C4FE0028AAD153
:10E6A0000134E4B2019BA3E721EA0201D7E700BFEE
:10E6B000002584502DE9F843484E3568012D61D17D
:10E6C0002F464FF00009464A93681268DC69D2F879
:10E6D0000880D3E902120A40D3E90510014322EA77
:10E6E0000102D8F800101B6909695C404C4022EA1D
:10E6F0000404002A35D13260002301279C46394E9C
:10E70000D6F8042307FA03F1114211D003F1A05205
:10E7100002F5515292001168012909D103F5A27046
:10E7200056F82000C2F800C0C0F3042081400C431A
:10E730000133082BE4D13CB3294FD7F80880D8F82F
:10E74000001009B30E68D8F80C308A6823401342D1
:10E7500003D04B68224638469847AEB131463668FA
:10E76000F1E73A420AD098F8043009F01F0000217E
:10E7700040EA4310FFF744FE22EA070209F10109CB
:10E780007F00B6E70024B7E7012D0DD10026144B1A
:10E790009C681B689F68D4E902321A40D4E90531AD
:10E7A0000B4322EA03020AB9BDE8F883154212D0EE
:10E7B000E169236997F804C04B40F34013F0010F5F
:10E7C00006F01F000CBF0321022140EA4C10FFF7A6
:10E7D00017FE22EA050201366D00E4E77CD1005005
:10E7E000544E002000D0005010B5044600220121F4
:10E7F0000A20FFF795F82368064A9868234600F137
:10E80000080100F0B5FC044B984214BF6FF00F00F4
:10E81000002010BD1DE800000000AD0B02788B68E1
:10E82000012A0AD003D3022A09D0064A00E0064A88
:10E830001A6203F1100001F0BDBC044AF8E7044A73
:10E84000F6E700BF0100AD0B0000AD0B0100AE0B01
:10E850000200AE0B2DE9F04F044687B00D469146FD
:10E860009A4680684FF0FF3101F0CAFC2368002708
:10E87000986800F0C1FCDFF8988023684F45D3F812
:10E8800008B001D3002522E02E7A16F0080136D117
:10E8900012220DF1060002F084FE06F001038DF84D
:10E8A00004306B6816F0020F02932B680CBF202215
:10E8B000002201A958468DF805A0049300F0C8FC79
:10E8C00040450FD0114B98421CD06FF004052368CF
:10E8D000986800F0A1FCA06801F06CFC284607B025
:10E8E000BDE8F08FA06810304FF0FF3101F088FCD8
:10E8F000A3680C351B6A4345E7D10137BDE76FF0CC
:10E900002205E4E76FF00F05E1E700BF0B00AD0B58
:10E910000000AD0BF0B54B79012B29D0032B24D18E
:10E9200001268B79032B20D1CD792DB1012D1CD15E
:10E9300003689B681B79C3B10A7912B1022A14D10A
:10E940000E2247F6122703689B681C680B68BB42BF
:10E9500074D029D8B3F5965F6AD014D8B3F5167F72
:10E960004FD007D8B3F5967F7DD06FF022005BE0E3
:10E970000026D6E7B3F5966F57D0B3F5166FF4D1EE
:10E980004FF41D233FE0B3F5615F53D004D8B3F5D6
:10E99000165FEAD1354B36E0B3F5964F4CD0B3F560
:10E9A000E14FE2D1324B2EE0B3F5E13F4FD012D828
:10E9B0004DF6C027BB4244D005D8B3F5164FD4D18D
:10E9C0004FF41D031FE0B3F5614F3DD0B3F5963F03
:10E9D000CBD1284B17E0B3F5E12F3ED008D8B3F5E3
:10E9E000613F37D0244FBB42BFD14FF080630AE074
:10E9F000B3F5612F34D0214FBB42B6D14FF08053D5
:10EA000001E04FF41C332A43C4F82435C4F86C25C4
:10EA10002EB1D4F86C3543F01003C4F86C3583681C
:10EA200003C983E803000020F0BD4FF49E23EAE70A
:10EA3000134BE8E7134BE6E7134BE4E74FF400030F
:10EA4000E1E74FF46503DEE74FF46B03DBE74FF0DC
:10EA5000EB73D8E74FF06C73D5E74FF0E863D2E77C
:10EA60004FF07063CFE74FF4A033CCE7005027009E
:10EA700000C0750000903A0190D0030040420F00A2
:10EA800000B0130000F03A0000A04E002DE9F04164
:10EA900001254FF0030E4FF0000C03680A689B68D5
:10EAA00005FA02F71C681F4B86689F6002F1800719
:10EAB00043F827E04F6807F1800843F828C0C4F8FE
:10EAC0000C25C4F814758F687A1C10D0CA68511CC4
:10EAD0000DD002F1800195409D6043F821E007F1DF
:10EAE000800143F821C0C4F80825C4F810753146E8
:10EAF000FFF710FFA0B90823C4F8003506F10C0396
:10EB0000C4F81001C4F834350123B268C4F83835AC
:10EB100092682360C4F84425C4F84805A360E36004
:10EB2000BDE8F0810025845030B585B06C460546BF
:10EB3000084B0FCB84E80F00002201210920FEF7CB
:10EB4000EFFE0920FEF7DCFE21462846FFF79EFF78
:10EB500005B030BD1433010030B585B06C460546B4
:10EB6000084B0FCB84E80F00002201210820FEF79C
:10EB7000D7FE0820FEF7C4FE21462846FFF786FF91
:10EB800005B030BD243301000749D1E8EF3F43F021
:10EB90000102C1E8E02F0028F7D1DB0703D40839D0
:10EBA000024804F0BDB87047584D0020E02900200D
:10EBB000114B70B51C6B06460D4600239E4214DCBB
:10EBC000BCB138220021284602F0EBFC94F90E007B
:10EBD00005F118032022C11703F084FC0020A37B59
:10EBE0006E702B70637BAB7070BD14B1646E0133BB
:10EBF000E4E70520F8E700BFA029002008B501469A
:10EC00000022024801F070FD002008BD9C4E00204B
:10EC10002DE9F0475449A0B0074603F060FA4FF0E1
:10EC2000FF3206466946384600F0C6F9064304D06E
:10EC30000225284620B0BDE8F087DFF84881DFF8DC
:10EC40004891DFF848A112A93046FFF7B1FF052827
:10EC500005467FD00028ECD118A9684603F03FFA9A
:10EC60004FF0FF32044609A9684600F0A5F9414675
:10EC7000044309A803F033FA9DF848200023044315
:10EC800009A803F0C2FC4946044309A803F027FA87
:10EC90009DF849200023044309A803F0B6FC51461F
:10ECA000044309A803F01BFA9DF84A2000230443FB
:10ECB00009A803F0AAFC2D49044309A803F00FFAA0
:10ECC000BDF84C200023044309A803F09EFC28490A
:10ECD000044309A803F003FABDF84E2000230443BF
:10ECE00009A803F092FC2349044309A803F0F7F9AB
:10ECF000149A2B46044309A803F087FC1E490443D9
:10ED000009A803F0ECF9159A2B46044309A803F06F
:10ED10007CFC1A49044309A803F0E1F9169A2B4632
:10ED2000044309A803F071FC1549044309A803F042
:10ED3000D6F92B460443179A09A803F066FC09A9E3
:10ED40000443684603F099FC54EA00037FF470AF73
:10ED5000013678E76946384603F08FFC00287FF4D7
:10ED600067AF054665E700BF863701009B370100A6
:10ED7000A2370100A9370100B0370100B837010000
:10ED8000C53701008C37010091370100953701002C
:10ED900070B5B8B0044600215C2201A802F001FC65
:10EDA000154B18AD009304238DF8043080230A938B
:10EDB00001238DF82C300023694604F1540002959C
:10EDC0008DF8603003F081F998B90C49204603F0C2
:10EDD00086F90646284602F092FB2946024620465E
:10EDE00003F040FC56EA000314BF0220002038B0B4
:10EDF00070BD0320FBE700BF93370100F53501002C
:10EE0000014800F0A5B800BF5C4D002037B50D46A5
:10EE10001446FEF7CDF938B16A460449CDE90054ED
:10EE200002F0CBF903B030BD0520FBE7F92001006B
:10EE300070B513498AB0054603F091F94FF0FF32DF
:10EE4000044601A9284603F015FC00260443694640
:10EE5000304603F072F9052807D078B900992846A2
:10EE600003F07DF901360443F1E701A9284603F0D8
:10EE700004FC54EA000314BF022000200AB070BD55
:10EE8000D23701002DE9F04FABB0054600215C22DE
:10EE900013A802F086FB04230DEB03068DF84C301B
:10EEA0002023244F12A905F15400129714961C93A5
:10EEB00003F00BF900283BD11F49284603F04FF916
:10EEC000002300220446284603F0AEFB3946834661
:10EED000284603F044F931468246284603F03FF9BC
:10EEE00016498146284603F03AF94FF0FF3209A946
:10EEF0008046284600F060F809AA074610493046C7
:10EF0000FFF784FF064678B909A9284603F0B5FB48
:10EF100044EA0B0343EA0A0343EA090343EA08030A
:10EF20003B43034318BF022630462BB0BDE8F08FA9
:10EF30000326F9E7DC370100A6350100E1370100BF
:10EF400079210100014800F003B800BF684D00209E
:10EF5000034B1A6802B9034A10601860704700BF7B
:10EF60006828002064280020074B1B680BB900208C
:10EF700070475A898242F8D11A898A42F7D958686B
:10EF800000EBC100704700BF6428002070B5044644
:10EF900008480D4602F0B3FA06490246204603F03F
:10EFA00061FB30B92A46EB172046BDE8704003F0FC
:10EFB0003BBB70BDA6350100064B10B402F1004406
:10EFC0009C4203D9A02310BC03F0DEBA4FF480604A
:10EFD00010BC7047FEFFFF7F7FB5154616680C46D4
:10EFE000A9B10268526A5269CDE9003221460DF199
:10EFF0000F032A4603F0D7FC38B99DF80F3043B110
:10F000001CB12B68B34200D2E05404B070BD024A78
:10F01000EAE74FF00040F8E7BD2601000022D300E8
:10F0200003F57F03D3F80013013108D0D3F80013A0
:10F030000132D3F80433B2F5807F0B60EFD1424A3E
:10F04000D36913F001033BD0404B1946D3F8002499
:10F05000012AFBD1C3F80425D1F80034012BFBD1E0
:10F06000394BDA69D20708D5DA69384922F001024A
:10F07000DA61D1F80024012AFBD11A6A01320AD1DF
:10F080001A6A22F0FF0242F020021A622F4AD2F8D6
:10F090000034012BFBD100222C4BC3F80425D3F8FC
:10F0A0000024012AFBD1BFF34F8F2949294BCA689D
:10F0B00002F4E0621343CB60BFF34F8F00BFFDE764
:10F0C000126A0132C0D0244A116809290AD12349A1
:10F0D0000968013901299EBF4FF05021C1F8143150
:10F0E000C1F818311368092B09D11C4B1B68012B7F
:10F0F00001BF1B4A1360A2F63822C2F87835164BBE
:10F100001A68092A0BD1154A1268022A07D1002170
:10F11000134A11600121A2F63822C2F878151B6843
:10F12000092B06D10D4B1B68022B02BF0C220D4B85
:10F130001A60074AD2F88C3043F44063C2F88C302E
:10F14000094B0A4A1A6070470080FF000090035084
:10F1500000ED00E00400FA053001FF003401FF007B
:10F16000384A0050E4AE0350844D00200090D00394
:10F170004FF0340CF8B506791B4D0CFB06FC05EB83
:10F180000C0494F82D7067BB45F80C2040F20C6C11
:10F1900063604B7BA76084F8307084F82F7084F82C
:10F1A00032300C68114F04F1800347F823C04B68DC
:10F1B000006803F1800E47F82EC0C0F80845C0F87B
:10F1C0000C358B68C0F824351AB140F30730FEF7D0
:10F1D00097FB342303FB06550123054885F82D30A2
:10F1E000F8BD0448FCE700BF6C28002000258450CF
:10F1F0000000AD0B0500AD0B062102680379C2F8D3
:10F2000000153421034A01FB0323022283F82D2039
:10F21000704700BF6C2800200268037934200A4937
:10F2200000FB0313002009499860C2F80813D2F8C4
:10F23000001221F4BC51C2F80012C2F800050122EC
:10F2400083F82D20704700BF6C28002002029C012B
:10F25000CB682DE9F04703F06043B3F1005F0D4642
:10F26000944602D08E48BDE8F0874FF0340E0779FF
:10F270008C4E8D4B0EFB076E0468C4F808339EF865
:10F280002F3003F0FF0A2BB1DEF808308748C4F8AE
:10F290000433E8E712F0140F0CBF01230023894662
:10F2A0008EF82F300EF10C08B9E80F00A8E80F0017
:10F2B000D9F80030C8F80030CCF300138EF83030A5
:10F2C0006B78C4F888351CF0010318BF0123C4F81B
:10F2D00004A1C4F824A1C4F850351CF0020318BFDF
:10F2E0000123C4F840352B78032B00F2BB80DFE804
:10F2F00003F07CA35D022A6902F06043B3F1005F72
:10F30000B0D14FF48073E968C4F800326B68C4F878
:10F310004415C4F8483501210023C4F85031C4F81D
:10F320006031C4F848312162A160D4F8501100293D
:10F33000FBD0C4F85031AB68C4F84425C4F8483554
:10F34000342303FB07635A4A9A604FF482730822FE
:10F3500058481CF0080F04D1297803291CBF01214B
:10F36000A15034227A43B118B258002A7FD101212A
:10F3700023441A68002A00F08780342202FB0766C3
:10F380000022D4F8C434C4F8C43486F82F20002BEB
:10F390003FF469AF484A13F0020F484808BF1046CF
:10F3A00013F0040F464B18BF18465CE76B68EA6819
:10F3B000C4F84425C4F848352B6903F06042B2F123
:10F3C000005F7FF44FAFAA68C4F834354FF484531C
:10F3D000C4F83825C4F80032342340F2022203FB7B
:10F3E00007639A6001232362AFE76B68EA681CF049
:10F3F000200FC4F84425C4F848354FF034030FD02B
:10F400004FF4807203FB0763C4F80022284A9A6015
:10F410000023C4F848314FF4A4730122226296E716
:10F420004FF40072C4F8002240F2022203FB07638B
:10F430009A604FF48273F0E76B68EA68C4F8342589
:10F44000C4F838354FF48053C4F80032342340F206
:10F45000022203FB07639A600123002223624FF418
:10F46000827375E74FF482730822164871E71CF027
:10F47000040F1CBF4FF400738B60342303FB07663B
:10F48000B368C4F80433EEE6D4F82451002D3FF4F9
:10F4900070AFC4F824214FF482732162616167E781
:10F4A0000A00AD0B6C28002002029C010B00AD0B82
:10F4B000000204000000AD0B0100AD0B0100AE0B1B
:10F4C0000200AE0B0400AD0BF0B5454B87B0D3F88E
:10F4D00024211D46434C92B10022C3F82421D3F8C5
:10F4E000042162B9A268C3F808230222A260A268BC
:10F4F000C3F8042301221A625A6107B0F0BDD5F89F
:10F500000431002B3FD00023374FC5F8043101AE42
:10F510000FCF0FC63B6894F82E10336079B1237B70
:10F52000012B0CBFD5F83C25D5F84C25022B2C4BD4
:10F5300002920CBFD3F83C35D3F84C35039300222C
:10F54000274B94F83000C3F86021C3F85C2100B168
:10F5500029B1C3F80022A260244AC3F80823204A34
:10F56000D2F8C434C2F8C4349A0733D501238DF8D5
:10F57000003094F830300BB984F82F30D4E90031E2
:10F5800068469847B9E7C5F84831237B83B9164FD9
:10F5900001AE0FCF0FC63B68336094F83030002BBC
:10F5A000DDD1C5F80032A360104BC5F80833D6E7AB
:10F5B0004FF40073C5F8003240F20223A36003F158
:10F5C000CE73C5F80833A368C5F804330123AB60D4
:10F5D0002B6292E713F0040318BF0223C7E700BFB2
:10F5E00000A000506C2800207828002002029C0116
:10F5F00070B50026084B53F82040013053F82050D6
:10F60000A54200D870BD236820465B68984700B1CA
:10F6100066600C34F4E700BFF4340100104B70B5A1
:10F6200005461E460F4C9C4204D10E4CB44209D1F3
:10F63000002412E062681AB122681268AA420CD053
:10F640000C34F0E763680BB90C34EFE72368284605
:10F65000196801F05CFF0028F6D1204670BD00BF9C
:10F660009C4E0020DC4D002008B50B4D4FF02002D1
:10F67000EFF3118382F31188BFF36F8F03F0A5FCC2
:10F68000012104460228D8BF084603F0AEFC2C62D4
:10F69000FEF7DEF8EAE700BFA02900200248034A8F
:10F6A0000021121A01F07DBF00000020F42A002082
:10F6B00008B50648064A0749121A01F045FFBDE899
:10F6C0000840054A0549064801F03EBFA84C002005
:10F6D000784F002038380100000000003838010061
:10F6E0000000002008B50220FFF782FF074801F064
:10F6F00054FD0320FFF77CFF00F060FEFCF7FCFFE9
:10F70000034A137B23F00103137308BDE83701009C
:10F710002029002080B5344BA6B083F3088800244C
:10F72000E023324D012785F82230EC772C766C7679
:10F73000AC766B6A2E4E43F4E0236B62FEF716FA4A
:10F74000FEF780F84FF0FF33AB62EB6206AB80222E
:10F750002146184601F025FFB06020468DF825703F
:10F76000FFF746FF3846FFF743FF224D00F0C2FC8B
:10F77000214B4FF48062CDE90473CDE902441F4B65
:10F78000CDE900441E492846756200F0B7FD6B7B49
:10F7900023F0040213F01B0F6A7304D1AB6913B991
:10F7A000284600F0E5FA174B012205930F23CDE917
:10F7B00003320023144DCDE9013300934FF4A072BE
:10F7C000124B1349284600F099FD6B7B4FF4806281
:10F7D00023F004036B730F4B0949C6E90633054850
:10F7E000064BF560FEF7DEF83838002000ED00E04B
:10F7F000A0290020202900201A380100E5F6000089
:10F80000F82A00201F380100A028002069F6000017
:10F81000F82E0020B829002070B500240A4B0B48B0
:10F82000834201D3002070BD00211A699D685C618C
:10F83000A94201D11C33F3E75E6901311660DE682D
:10F840005A613244F4E700BFC84E0020E44E002065
:10F8500010B513460C464FF02002EFF3118182F3EE
:10F860001188BFF36F8F426962B1226043691B68E0
:10F870004361836901338361002081F31188BFF301
:10F880006F8F0DE01BB923606FF00B00F5E70246A8
:10F89000044800F0ABFB18B9034B9B685B6923601D
:10F8A00010BD00BFF22A0020A029002070B5044638
:10F8B0000D464FF02003EFF3118683F31188BFF359
:10F8C0006F8F03F0D7FA80B100212A68C1674261C7
:10F8D000427BD20603D183690BB900F049FA314665
:10F8E000BDE87040074803F047BA2B6862691A60A8
:10F8F0002B686361A369013BA36186F31188BFF3A1
:10F900006F8F70BDF22A002038B5074C074DAC420E
:10F9100001D3002038BD04F114032046C4E90533A7
:10F9200001F0F7F81C34F2E7E44E0020E44E00202A
:10F930002DE9F04F1C1E85B007460D4692463BDD73
:10F9400003F071FB10EB04081D4B1E4EFB1A9B10BD
:10F950005E4307F1140BF6B203AB02AA00955146C1
:10F96000384601F022F96B79029A2E7162F3030393
:10F970006B716B68039A62F31F336B60C8B1C4B1DB
:10F9800010F10C0F15D14FF02003EFF3118083F32A
:10F990001188BFF36F8F2246594600F003FB631CAA
:10F9A000DAD003F040FBA8EB0004002CD4DC6FF0AD
:10F9B0000A0005B0BDE8F08F4FF00008C4E700BFB3
:10F9C000E44E0020B76DDBB670B50478026841786C
:10F9D000114EC4EBC404A400120B01F00F01301946
:10F9E00001F09BF94FF02003EFF3118583F31188A9
:10F9F000BFF36F8F04F11400304403F068FA28B1AC
:10FA00002946BDE87040054803F0B6B985F3118872
:10FA1000BFF36F8F70BD00BFE44E0020F22A0020BC
:10FA2000034B01469B68586F08B103F0DFB870477D
:10FA3000A0290020F8B504460F464FF02003EFF34D
:10FA4000118583F31188BFF36F8FC26830495AB1B3
:10FA500080688E68B04215D0B7B985F31188BFF3BE
:10FA60006F8F6FF00F000CE08B6893F90E302361FD
:10FA70008B680132E260A36085F31188BFF36F8F5A
:10FA80000020F8BD2369F2E790F90E3096F90E10C8
:10FA90009942A8BF194621EAE17199422BDA00F098
:10FAA000E7FA06463B46224629461A4800F09EFAE7
:10FAB0000028E6D04FF02003EFF3118583F311887F
:10FAC000BFF36F8F236821699C4207D033B193F94C
:10FAD0000E309942A8BF194621EAE171A06890F959
:10FAE0000E30994209D16EB129460A4803F044F913
:10FAF0006FF00A00C5E70026D4E700F0B9FA002845
:10FB0000F2D1F0E785F31188BFF36F8FF0E700BF04
:10FB1000A0290020F22A00201E4B70B59A680446E6
:10FB2000D37B013BD373C368012B05D0013BC3607A
:10FB3000BDE8704000F000B94FF02003EFF31186EC
:10FB400083F31188BFF36F8F0169806890F90E30DD
:10FB5000994201D000F08CFA204603F08BF905465B
:10FB6000A06080B1437BDB0603D183690BB900F051
:10FB7000FFF886F31188BFF36F8F0023EB6795F9C9
:10FB80000E302361D4E7E06086F31188BFF36F8FF6
:10FB9000CEE700BFA029002038B54FF02003EFF3D7
:10FBA000118583F31188BFF36F8F046884B12368D4
:10FBB000426823F003039442036008BF43600121BD
:10FBC000204603F099F885F31188BFF36F8F38BD95
:10FBD00029B985F31188BFF36F8F0846F7E700F165
:10FBE00008020B461046294600F000FA18B9034BEC
:10FBF0009B685869EBE72046E9E700BFA029002091
:10FC0000EFF305800D2809D828B1054B586880F41A
:10FC10000060C0F3C02080F0010070470120FAE7C7
:10FC200000ED00E010B5084C23685BB1FDF7C2FCA5
:10FC30002368064A184410610021BDE810401846A8
:10FC400003F0D3B910BD00BFDC290020A02900209B
:10FC5000F8B50D464FF02003EFF3118483F31188BC
:10FC6000BFF36F8F4FF4004140F2E73600270022C8
:10FC7000C1FB0067094B30461A6139464FF47A726E
:10FC80000023FCF75FFB064B1860064B1D60FFF777
:10FC9000C9FF84F31188BFF36F8FF8BDA02900203E
:10FCA000DC290020D82900204FF02003EFF3118138
:10FCB00083F31188BFF36F8F044B9A68D37B013BAA
:10FCC000D37381F31188BFF36F8F7047A029002091
:10FCD000094B03F12802824205D19B688B4202D175
:10FCE0004B7BDB0607D1D1E900231A600A68536019
:10FCF0000023C1E900337047A029002038B50D4C1E
:10FD0000024604F1280003F07EF8054600B9E568D4
:10FD1000A3684AB95A7BD20606D1AA6922B9DA8900
:10FD20007F2A01D9636238BD9D4201D0FFF77AFF77
:10FD30006562F8E7A029002010B54FF02003EFF32B
:10FD4000118483F31188BFF36F8F084B00209A68EA
:10FD5000D37B0133D373FFF7D1FF84F31188BFF353
:10FD60006F8FBDE8104003F026B800BFA029002027
:10FD7000F8B54FF02003EFF3118483F31188BFF33C
:10FD80006F8F164A114651F8283F8B420CD05BB159
:10FD9000D66A90F90E5093F90E70AF420BDCB34265
:10FDA00002D01B68002BF6D1D36A01604360D36A8E
:10FDB0001860D06205E05A68C0E900325A681060E5
:10FDC0005860437B43F0400343730020FFF796FFE6
:10FDD00084F31188BFF36F8FF8BD00BFA029002006
:10FDE000F8B504464FF02003EFF3118583F3118833
:10FDF000BFF36F8F437B5A0603D501461848FFF7C0
:10FE000067FF184A02F12801D2E90A308B420BD071
:10FE100053B194F90E6093F90E70B7420ADC834235
:10FE200002D01B68002BF6D1C4E90010D36A1C6015
:10FE3000D46205E05968C4E9003159680C605C601F
:10FE4000637B906843F040036373031B584258413F
:10FE5000FFF754FF85F31188BFF36F8FF8BD00BF24
:10FE6000C8290020A0290020154A164938B50C6879
:10FE70009368A342144603D1BDE83840FFF7D2BED1
:10FE800000250D6010490968B9B1D9897F2914D8B6
:10FE90000E4993F90E5009688D420EDB0C498B42D6
:10FEA0000BD0996949B91169814203DC1846FFF703
:10FEB00097FFE1E7091A116138BD00232361FBE7D1
:10FEC000A0290020D4290020DC290020D8290020E6
:10FED000A028002038B504464FF02003EFF3118529
:10FEE00083F31188BFF36F8F437B5A0607D5014612
:10FEF0000948FFF7EDFE637B23F040036373074B74
:10FF00009868031B58425841FFF7F8FE85F31188A3
:10FF1000BFF36F8F38BD00BFC8290020A029002083
:10FF200070B504460D461646FFF7D4FF637B43F0D9
:10FF300002036373EDB12B68A5609D420CD05BB1E9
:10FF400094F90E2093F90E1091420CDC69688B42F3
:10FF500002D01B68002BF5D16B68256063606B686D
:10FF60001C606C6005E05A68C4E900325A6814608D
:10FF70005C60731C13D04FF4004540F2E730002161
:10FF80004FF47A72C5FB06010023FCF7DBF9044944
:10FF9000421C04F11800BDE8704000F0C9BA70BD01
:10FFA000132E010070B506460E4D0F4CA868FFF7E2
:10FFB000B7FFAB6830462360FDF788FC4FF02002A6
:10FFC000EFF3118382F31188BFF36F8F2268A96862
:10FFD000914204BF0022226083F31188BFF36F8F28
:10FFE00070BD00BFA0290020D429002010B50C4608
:10FFF0001146064A9068064A10601A46FFF790FFBD
:020000040001F9
:100000002046BDE81040FDF761BC00BFA0290020DC
:10001000D4290020F8B5461C03F001F834184FF03D
:100020002003EFF3118783F31188BFF36F8F0D4D1A
:100030000D4BA8681860FFF74DFFA8680B493246C2
:10004000183000F075FAAA683846537B43F0100365
:100050005373FDF73BFC02F0E2FF201A20EAE07048
:10006000F8BD00BFA0290020D4290020132E0100D4
:100070002DE9F84304464FF02003EFF3118983F391
:100080001188BFF36F8F02F055FE4EB2804668B301
:10009000174D214605F128073846FFF719FEAB6AD0
:1000A000A673BB422A460AD04BB1E96A93F90E0007
:1000B000B0420BDC994202D01B68002BF6D1D36A08
:1000C00027606360D36A1C60D46205E05A68C4E9A3
:1000D00000325A6814605C600120FFF70FFE89F35C
:1000E0001188BFF36F8F4046BDE8F883A673F6E72B
:1000F000A02900200021044B084603F12802C3E98F
:100100000A22FFF7A5BD00BFA0290020F8B5244CA6
:10011000244BA2689A4236D04FF02003EFF31186A9
:1001200083F31188BFF36F8F04F12805A168284677
:10013000FFF7CEFDA26AA368AA420CD05AB1E06ACA
:1001400093F90E1092F90E708F420BDC824202D0AE
:100150001268002AF6D1E26A1D605A60E26A1360F2
:10016000E36205E05168C3E9002151680B60536008
:100170005A7B012042F040025A73FFF7BFFD86F31D
:100180001188BFF36F8F4FF02003EFF3118083F3DB
:100190001188BFF36F8FBDE8F840FDF797BB00BF34
:1001A000A0290020A0280020014B9868704700BFBC
:1001B000A029002070B504464FF02003EFF311860C
:1001C00083F31188BFF36F8F02F054FE054670B1C0
:1001D000437BDB0603D183690BB9FFF7C9FD00231D
:1001E000EB673146BDE87040044802F0C5BDD4E974
:1001F00002329A4218BF0133A360F2E7F22A0020CC
:1002000010B402460B464FF02000EFF3118180F34B
:100210001188BFF36F8F946844B1013C946081F3FF
:100220001188BFF36F8F002010BC704733B981F382
:100230001188BFF36F8F6FF00F00F5E7014810BC16
:10024000FFF7D4BEF22A002010B5084C4FF0FF3360
:100250004FF400620649204600F00AF9054904F10E
:10026000100002F072FE002010BD00BFE029002047
:1002700038380020243801004FF02003EFF31181BB
:1002800083F31188BFF36F8F094A136B834207D141
:100290005B6E136381F31188BFF36F8F7047134652
:1002A000002BF7D05A6E8242F9D1426E5A66F1E7BE
:1002B000A029002010B502464FF02003EFF311846F
:1002C00083F31188BFF36F8F437B590704D484F302
:1002D0001188BFF36F8F10BD23F00403437302F046
:1002E0002BFE10B11046FFF743FD2146BDE810403C
:1002F000014802F041BD00BFF22A00202DE9F04381
:100300000446994687B0129DDDF840800495119D02
:10031000DDE90E76CDE90285CDE90076FDF718FB23
:10032000C4E91597C4E917684FF02003EFF3118271
:1003300083F31188BFF36F8F074B196B1C636166E2
:1003400082F31188BFF36F8F9B681BB9636707B097
:10035000BDE8F0835B6FF9E7A029002070B50026A7
:1003600086B005960E9E0F9D04960D9E044603963C
:100370000C9E02960B9E01960A9E0096FFF7BEFF0A
:100380006B1C03D02DB92046FFF794FF204606B022
:1003900070BD4FF4004640F2E73000214FF47A720E
:1003A0000023C6FB0501FBF7CDFF0349421C04F106
:1003B000180000F0BDF8E9E7132E01002DE9F04F19
:1003C000284E294DB04687B0B54205F1300410D310
:1003D000FFF76AFC4FF4004940F2E7360027224C51
:1003E000DFF888A0444521D307B0BDE8F04FFFF700
:1003F000A3BC54F8043C059354F8103C049354F8FF
:10040000143C039354F8183C029354F81C3C019399
:1004100054F8203C009354E90A2354E90C01FFF7F7
:100420006DFF54F8303CDD642546CDE7616A4B1C16
:1004300004D0256821B92846FFF73CFF3034D1E7C6
:10044000B346BC46C9FB01BC4FF47A720023584640
:100450006146FBF777FF5146421C05F1180000F09A
:1004600067F8EBE79C4E00209C4E0020132E010005
:100470002DE9F041054686B00E461746984602F033
:1004800047FC05F110040020094BCDE90400CDE93B
:100490000208CDE900503A4631462046FFF75EFF9C
:1004A0002046044906B0BDE8F04102F04EBD00BF51
:1004B000590E01002D380100034B1B680BB9FDF7E5
:1004C00079B80020704700BF702A0020036840B14F
:1004D000084A5268904204D01BB19A6881680A4465
:1004E0009A604268136003685A600023C0E90033D1
:1004F000704700BF884D00200B4B10B51C689C4214
:1005000008BF0024FFF7D8FF54B1A368181A20EAE7
:10051000E070064B1B6913B19842A8BF184610BD86
:100520006FF00040F5E700BF884D0020A0290020B3
:1005300070B504461646C1604FF02003EFF31185F5
:1005400083F31188BFF36F8FFFF7B6FF012EACBFA7
:1005500080190130174BA0601A689A4201D05E687A
:1005600032B95A68236062605A6814605C600BE0BC
:100570009068A168884216DD411A91605168C4E90B
:10058000002151680C6054601A689A4206D0944267
:1005900004D1FFF7B1FF0021FCF7BEFF85F31188FE
:1005A000BFF36F8F70BD091A9642A160D9D012684F
:1005B000D6E700BF884D00202DE9F04B0446FFF739
:1005C00053FC4FF02003EFF3118583F31188BFF341
:1005D0006F8F214F214EB846DFF884903460D9F8F0
:1005E000004032684C45D7E900BC05D024B1A3686F
:1005F000934214DD9B1AA36000241BEB02004CEB1A
:10060000E271C8E900013460FFF776FF2146FCF78C
:1006100083FF85F31188BFF36F8FBDE8F08B1BEB71
:1006200003004CEBE371D31A33600023C7E90001E8
:10063000A3602046FFF74AFF85F31188BFF36F8F51
:10064000E36898474FF02003EFF3118583F3118897
:10065000BFF36F8FC3E700BF20020020702A002085
:10066000884D00202DE918484FF02003EFF3118446
:1006700083F31188BFF36F8FFCF79CFF074BD3E91F
:10068000002312EB000B43F1000C5846614684F343
:100690001188BFF36F8FBDE8188800BF20020020CB
:1006A000026A38B5002A044602DD0E49FFF740FF12
:1006B000636A01336362A3690BB12046984754F81B
:1006C000105FA5420DD065B1284602F03CFB6B7B64
:1006D000DB0604D1AB6913B92846FFF749FB0023B9
:1006E000EB6738BDA10601002DE9F34140F2E73682
:1006F0000027044688464FF400453046394600231B
:10070000C5FB02014FF47A72FBF71CFE39460090DC
:1007100030464FF47A720023C5FB0801FBF712FE46
:100720000190204602F03BFC009B20462362002300
:10073000019A0349636202B0BDE8F041FFF7F8BED9
:10074000A106010010B5094C23681BB1012300204C
:10075000236010BD00F07CF80028F7D0013806288F
:1007600096BF034B034853F8200010BD742A0020A5
:100770000C350100FE8FFFFFBFF34F8F0549064B7D
:10078000CA6802F4E0621343CB60BFF34F8F00BF2F
:10079000FDE700BF00ED00E00400FA05014B5B68D7
:1007A000184700BF904D0020024BD0E90012C3E96A
:1007B00000127047904D0020704700BF10B50446EE
:1007C00020B1BFF35F8F0020206010BD0348FFF70A
:1007D000E5FFBFF35F8F0020206010BD4C350100A6
:1007E00010B5044610B10023236010BD0248FFF786
:1007F000D5FF0023236010BD2835010050B1012230
:10080000D0E8EF3FC0E8E12F0029F9D1012BF7D064
:10081000BFF35F8F0020704770B40B4B0668C2684F
:10082000D0E90154C3E90242C3E90065D1E90302FA
:100830000E68064BD1E90154C3E90065C3E90240E3
:100840001A6170BC704700BF984D0020A84D002071
:1008500010B500F033F870B900F034F880B900F04A
:10086000AFF880B9114B1B681B0EF02B0DD006247E
:1008700000F026F800E0032400F052F8204610BDF6
:100880000424204610BD0024F2E7094A094B1268EF
:100890009A4201D00724EBE7012000F091F80028EC
:1008A000F1D1054B04461860E8E700BF28198450D1
:1008B000241A84500000E0200C1A84500020704755
:1008C0000020704710B5114800F048F800B110BD85
:1008D0000F4800F043F80028F9D10E4C204600F0F4
:1008E0003DF80028F3D10C4B0C481C6000F036F8A2
:1008F00001460028EBD100F02DF8044608B120464F
:1009000010BD00F03FF82046FAE700BFC84D0020B8
:10091000BC4D0020C44D0020CC4D0020C04D002017
:1009200008B5084800F024F8074800F021F8074807
:1009300000F01EF8064800F01BF8BDE8084000F083
:100940000BB800BFC84D0020BC4D0020C44D002096
:10095000C04D002000207047704700BF08B5034B12
:1009600002681B6810689847002008BD984D002059
:1009700008B5034B02685B6810689847002008BD03
:10098000984D002070B5094C094D2069AB68984717
:1009900018B1084B08485B6898470021074AEB6884
:1009A00011602069BDE87040184700BFA84D0020C5
:1009B000984D0020904D00206C350100882A0020C1
:1009C00070B5144C144D0646AB6820699847F0B9D1
:1009D000124A13685EB91BB901201149C1F800051C
:1009E00001331360EB6820699847002070BD002B2D
:1009F000F8D0012B08BF0A4903F1FF3308BFC1F843
:100A0000000520691360EB6898470020EEE7054871
:100A100070BD00BFA84D0020984D0020882A0020FE
:100A200000008450E98FFFFF38B5054608460C46A4
:100A300000F065FD214602462846BDE8384001F039
:100A400011BE08B5FBF7D8FE30B9FBF7DBFE002876
:100A500014BFC820062008BDC920FCE740E800F309
:100A600013F4803FD8B208BF6FF0150070472DE92E
:100A7000F0419DF818400025002C14BF02240024EA
:100A80004FF0800C6718AF421BD81846BDE8F081C4
:100A900023465C008D42A4B208D290F800802CFA64
:100AA00006FE18EA0E0F18BF44F001041B0406F1FD
:100AB000010648BF5440082EEAD1013501302346D3
:100AC000E1E70026E5E770B50C254D43C66890F9CF
:100AD0000B0074198842A8BF21464FF0200492FBF6
:100AE000F4F4B8BF715902F01F0001EB84011960E2
:100AF00070BD4FF02003EFF3118083F31188BFF333
:100B00006F8F7047C30703D581F31188BFF36F8FD1
:100B10007047FF232DE9F74F4568002229464FF023
:100B20000C0A4FF0200B0789046805FB07FCC37211
:100B3000837A64440193019B934208DC00231946A5
:100B40008F4205EB030C21DC03B0BDE8F08FBCFB4A
:100B5000F1F3202B84BF1F3393FBFBF30AFB02FE50
:100B6000D0F80C804FEA910108EB0E0606F104095B
:100B7000C6E9019921F0030194BFC27248F80E4002
:100B800002F1010288BF04EB8304D4E7C26806685F
:100B900002F1040EF41846F803E093680131636033
:100BA00093681C6094606346CAE72DE9F04F89B0F2
:100BB000847A00AFC7E90232A3000A3303F4FF636B
:100BC000ADEB030DEA4653464268054643F8042957
:100BD0000022944202F1FF3909DD22B11868800831
:100BE00020F00300586053F8040F884208D2B9F18E
:100BF000FF3F07D10023BA6C13606FF00B0047E092
:100C00000132E6E7287C10F0010001D0FFF771FF08
:100C10000C23C84603FB09F31A1DEB6878611344E3
:100C20001C68A34270D0D4E900231A6022685AF8E5
:100C3000281053600023C4E900332B6807F11C0B14
:100C4000E21A92FBF1F25B4641462846FFF73BFF72
:100C50000122F96902FA00F00B680AEB88060343E7
:100C60000B607A60C84517DB7969287CFFF74AFF7B
:100C7000BB6C1C60002CC0D0FB680020C3F8009047
:100C80002B68E41A5AF8293094FBF3F4BB681C6013
:100C90002437BD46BDE8F08F2B683268E31A93FB1A
:100CA000F2F208F101085B46920041462846FFF740
:100CB0000AFFFA697B68E96803FA00F013680343E6
:100CC00013600C23032203FB081156F8040F01F1F3
:100CD000040E23183A618A68C3F800E05A608A68F3
:100CE00013603A698B60013A03443A61F3D1796940
:100CF000287CFFF707FF2B7CDB0703D5FFF7F9FE06
:100D00007861AFE73869FBE708F1FF38B8F1FF3FDA
:100D1000A4F10C0384D10024A6E72DE9F04F85B09F
:100D2000837A00AF9B000A3303F4FF63ADEB030D3E
:100D3000EB46436805465C460120CBF80030814213
:100D400014D2287C0E4610F00100904601D0FFF727
:100D5000D0FE0446002E11DA4FF0FF342146287CE5
:100D6000FFF7D0FE1437BD46BDE8F08F2368013091
:100D70009B0823F0030344F8043FE0E75BF82630C8
:100D8000424603FB08FA7B602B68314603EB0A09F5
:100D90003B60284607F10C03FFF795FE0123FA6834
:100DA00003FA00F01368396823EA000313600C2289
:100DB000EB6802FB06331A1D41F80A209A682146A7
:100DC000C9F804209A68C2F80090C3F80890287CFB
:100DD000FFF798FE287C10F0010001D0FFF789FE94
:100DE0000446002EBAD007F10C034246314628468D
:100DF000FFF769FE042390FBF3F0FB6880001B689B
:100E000023FA00F010F00F00A8D1864628F0030A5C
:100E10007A680AEB000353432A68013002EB030CA3
:100E2000D158DCF804900428C9F80010D158C1F852
:100E3000049042F803E0CCF804E0E9D1013E98FBCD
:100E4000F0F887E7044608B5084611461A46A04759
:100E5000FFF7AAF9FCF7B0FE10B504464FF0FF31DA
:100E60002046FEF799FE03460028F7D04268083373
:100E7000D3E8EF1F21F0010CC3E8EECFBEF1000F65
:100E8000F6D1CB0700D59047FFF740F9E6E7002001
:100E9000704770B50D4604464520A04729465220AC
:100EA000A04729462346BDE87040522018472DE947
:100EB000F04F002705460E4692461C464FF0FF397C
:100EC000B846BB4689B09AF8000010B909B0BDE831
:100ED000F08FBBF1000F07D1252800F04E8131467D
:100EE000A8470AF1010AEEE7642868D01AD8392821
:100EF0000BD831285AD22D2800F04681302846D010
:100F0000252808D13146A8477AE0582800F0B48057
:100F1000632800F02C8131462520A84731469AF8F5
:100F20000000F0E7702800F09D800DD8692846D0B9
:100F30006C2803D16C2F26D14C27D2E76828EAD140
:100F4000682F20D14827CCE7752870D017D8732890
:100F5000E1D1226804F1040B11460C4614F8010B90
:100F6000002840F0F980B8F1030F40F013818C1A8B
:100F7000A9EB0404002C00F3F5805C4640E07828DF
:100F80007AD07A28C7D1002FC5D10746A9E7B9F191
:100F9000000F0EDAB8F1000F00F0F980A0F130096F
:100FA000B8F1000F08BF4FF002089AE7B9F1000F3F
:100FB000F4DB0A2202FB0909A9F13009F0E77A2FD4
:100FC00003D1D4F800B004341EE06C2FF9D04C2FBC
:100FD000F7D14FF0000C4FF0FF3B073424F007032C
:100FE00003F10804D3E9002312F1004043F10001AA
:100FF0008C4508BF834506D231462846FFF749FF96
:101000004FF0000B6DE79346BBF1000F06DA314657
:101010002D20A847CBF1000B09F1FF3943465A4672
:10102000CDF8009031462846FCF72CF8E8E77A2FF7
:1010300002D12268043411E06C2FFAD04C2FF8D181
:1010400000214FF0FF30073424F0070303F10804B8
:10105000D3E90023994208BF9042CDD3CDF8009048
:101060004346DFE731463020A84731467820A8477D
:101070004FF008094FF001089AF80020702A05D1B6
:10108000236804340493002302930CE06C2FF7D000
:101090004C2FF5D1073424F00702136802F108043D
:1010A0000493536802930022102303920592402276
:1010B000043A02990498C2F1200CA2F1200ED0400B
:1010C00001FA0CFC40EA0C0021FA0EFE40EA0E0088
:1010D00010F00F0008D1059901B942BB4FF0300C58
:1010E00008E0CDF814B0E3E709288CBF4FF0570CA7
:1010F0004FF0300C31466044CDE90523A847039BEF
:1011000001330393DDE90523002AEAD1B8F1030F87
:101110007FF476AF039BC3EB490BBBF1000F7FF766
:101120006FAF31462020A8470BF1FF3BF5E7591E72
:101130009945069107DBB8F1010F06D13146302001
:101140000792A847079A069BB2E7B8F1020FFAD1B7
:10115000079231462020F4E731460292A847214603
:10116000029AFAE631462020A847013C02E73146C0
:10117000206804F1040BA847FFE65F46D8464FF00D
:10118000FF394FF0010BACE64FF00308A9E64FF032
:101190000108A6E65C468346A3E60FB407B504A99A
:1011A00051F8040B0191FBF7BFFF03B05DF804EBAE
:1011B00004B070477047FDF731BF2DE9F341054694
:1011C0000E4617460024EB88A34203DC002002B041
:1011D000BDE8F08100224FF0060C2B79286913FB43
:1011E00004F318339BB2824228DB214600224FF0E1
:1011F0000A0E91FBFEFC0EFB1C1102F101083031BE
:101200000DEB080000F8011C614631BB4FF0730C78
:10121000023280F800C04FEA520C0DEB020061452B
:101220001DDB02A90A44002102F8081C6A4639465F
:101230002846B0470028CAD10134C4E7E9680CFB4E
:101240000211B1F800E09E4505D1D1F80220002A34
:10125000EDD12146CBE70132C5E74246C9E71DF88B
:1012600001E010F8018D0DF8018080F800E00131F7
:10127000D5E70379C28800215A43183000F091B9AC
:1012800070B50446BDF81060059D0171C0E90336D4
:10129000C280FFF7EEFF21462846BDE87040FBF70D
:1012A00099BF83685A7A32B993F908000028CCBFF5
:1012B00000200120704702207047026870B59568D1
:1012C00084684FF02003EFF3118683F31188BFF396
:1012D0006F8F237A013B5BB2002B237218D1C4E9D4
:1012E00000336B6883B90122EB7A03F150231A6053
:1012F00000222B8903F150231A600020607286F3CC
:101300001188BFF36F8F70BD98470028EBD1F4E7C9
:101310004FF00000BCBF20726FF04400EFE7F8B55B
:101320000368064614469F6885684FF02003EFF374
:10133000118283F31188BFF36F8F2B7A01335BB275
:101340002B7282F31188BFF36F8F6A7A32B10CB9B6
:101350000020F8BDD4E901319847F9E7012B06D107
:101360003B6833B90122BB7A03F150231A604CB9B0
:10137000EEE798470028F5D1002CE9D0D4E90131F7
:10138000304698472B689C420DD013B11B68002B48
:10139000F9D1002020606B6813B9C5E90044D7E794
:1013A0001C606C60D5E76FF04400D2E70022FFF7C5
:1013B000B6BF83680020C3E90000704710B5002263
:1013C000044601210520FCF7ABFA0520FCF798FA4A
:1013D0004FF050230222C3F8182503220020C3F83F
:1013E0000423A368C3E9000010BD38B5846805462E
:1013F00023682BB161681A688B42226008BF626063
:101400000122627203B938BDD3E901212846904711
:101410002368002BF7D061681A688B42226008BFEE
:101420006260EFE770477047704700F01F021F21AE
:101430000420FCF7F7B800F0070207210220FCF7B0
:10144000F1B8024601210720FCF7ECB8420102F096
:10145000E002E0211520FCF7E5B818223F212A2000
:10146000FCF7E0B8420002F0FE0202212920FCF75E
:10147000D9B813223F212C20FCF7D4B80246012111
:101480002B20FCF7CFB80020FBF772BEFCF7E6B9C3
:1014900001F089BB0146006801F085BB08B5FCF787
:1014A000F1F9BDE80840FCF785B907B5002101A8AE
:1014B000FCF71AFD03B05DF804FB30B585B09DF86C
:1014C00008200D890B684C68498965F3040261F3B3
:1014D000471200938DF8082023F01F03621E134467
:1014E00023F01F030F280393044605D86946FCF731
:1014F000B5FB204605B030BD6FF01504F9E7024694
:101500000346981A13F8011B0029FAD170470138D5
:10151000013910F8013F11F8012F934202D1002B3D
:10152000F7D11A46981A704710B55AB10139841884
:1015300010F8012B11F8013FA04201D09A42F7D0D8
:10154000D01A10BD1046FCE7F0B581EA0004A507EB
:1015500003460BD0013B0A4491421DD1F0BD002A45
:10156000FCD011F8014B013A03F8014B9C07F6D16E
:101570000C461D1F8F183E1B032E08D86FF0030565
:10158000940805FB0422A40023442144E2E754F814
:10159000046B45F8046FEEE711F8014B03F8014FB7
:1015A000DAE70346F0B5C9B29C070FD11D4641EA00
:1015B000012444EA04449F187E1B032E0CD894088F
:1015C00003EB840413449C4209D1F0BD002AFCD0F3
:1015D00003F8011B013AE7E745F8044BECE704F890
:1015E000011BF0E74FF0FF307047002906DB036A6C
:1015F0009A898A4202DD9B68585C7047FF207047D9
:10160000036A98680844704710B404460846111EDF
:101610000ADB246AA289D21A8A4205DBA4681A4628
:10162000214410BCFFF790BF4FF0FF3010BC704753
:1016300010B4141E0ADB006A8289D21AA24205DBAA
:1016400080681A46204410BCFFF76EBF4FF0FF3091
:1016500010BC704707B5002911DB026A9389083B6B
:101660008B420CDB9368684619440822FFF76CFF35
:101670000198009900BA09BA03B05DF804FB4FF075
:10168000FF300146F8E707B5002910DB026A9389AD
:10169000043B8B420BDB9368042219440DEB0200E0
:1016A000FFF752FF019800BA03B05DF804FB4FF05A
:1016B000FF30F9E707B5002912DB026A9389023B84
:1016C0008B420DDB93680DF1060002221944FFF7EF
:1016D0003BFFBDF8060040BA80B203B05DF804FBE2
:1016E0004FF6FF70F9E770B504468068154608307C
:1016F0000E4600F089F9A8420AD3A0682A4631466E
:10170000083000F065F9002062682A44626070BD0C
:101710004FF00040FBE7FCF745BE70B504460E46AF
:10172000FCF730FC054618B1736A1BB12146984797
:10173000284670BDA079FCF799FD042204F114013C
:1017400005F11400FFF700FFF2E7838908309942A2
:1017500028BF194600F045B9F8B50846136A0C468B
:10176000164698470546F0B90120F8BDA389AB425B
:1017700011D931462046FFF7D0FF07462A46A16817
:10178000083000F025F9002229462046FFF7DDFF4A
:101790001FB90220E9E727460024F369394630469D
:1017A00098470028E0D1002CE0D12046DDE710B5B5
:1017B000044640B18B6A0BB1143098472046BDE80F
:1017C0001040FFF7A8BF10BD08B5FCF701FC0020D2
:1017D00008BD08B5FCF7DCFB002008BD2DE9F04191
:1017E00085681E46AB8907468B420C46904602D25E
:1017F0000320BDE8F08105F1080000F005F9B042D2
:10180000F6D3A868324620444146FFF79DFEAB89D7
:101810003444A3423CBFA4B2AC814FF0000038BFB7
:101820007C60E6E700F0C9B84FF48070704738B5C7
:101830000C468989A068FBF7ADFD05462046FFF7F9
:101840006AFF284638BD30B51D4687B003461446AA
:10185000009103AA052104A8FBF7F8FA2A460421FF
:1018600004A8A04707B030BD10B50446006818B101
:10187000FFF751FF0023236010BD2DE9FF410368EE
:1018800004460F461646002B4AD0012E4FD86FF063
:10189000150540F21442ABB293425CD040F20962AB
:1018A000934242D1206800F088F82068023EB0F8E8
:1018B0000C8050F8083F984400F0A6F800960146C6
:1018C000BB1C03AA4046FBF741FB002847D1206818
:1018D000039B8289ADB2134440F209629BB29542E8
:1018E000838105D1012B3AD9083000F082F8A0801D
:1018F0002068A3888189994217D330D801230093A7
:1019000041F2210200238068FFF7B1F838BB236859
:101910009A89023A9A812060184604B0BDE8F081A5
:10192000FCF730FB20600028AFD10023F4E702224F
:10193000394603A8FFF708FEBDF80C301D0245EA42
:10194000132540F20963ADB29D42A2D040F2144388
:101950009D429ED09BE723689B89002BA5D1204602
:10196000FFF782FFE1E72DE9F0479946012386B0B2
:1019700000939046002341F2210207460D46FFF7EF
:1019800076F8002406460DF1140AAC4203DB002071
:1019900006B0BDE8F087B4FA84F1CDE9019ACDF83C
:1019A000008033462A1B49093819FCF7C7FB002879
:1019B000EED1059B1C44E8E770470023838103694F
:1019C0008360704783690A465B681968FCF778BCD6
:1019D00030B4838804689D188580E01830BCFFF718
:1019E000B3BD83885B1A838003681944016008468D
:1019F000704708B5036802211A88FFF7F2FF10024A
:101A000040EA122080B208BD02688168C388521A79
:101A100080889B1A181A704710B504688068A468FB
:101A200001292468C06903D158406060002010BDBE
:101A300000334FF0010118BF0123D04000F0010036
:101A40009140834214BFA160E160EFE770B5046884
:101A50008068A468C069256801296E692C696D6871
:101A600080EA040084EA050404EA060480EA04002B
:101A70001CBFD04000F001001860002070BD8368DA
:101A800030B5186858B10024814213D108685CB998
:101A90005C681860A14200D158600020086072B9EB
:101AA000002030BD2846EFE720605868814208BF1B
:101AB0005C60F2E705680446002DF3D13AB11A687C
:101AC0000A60586819600028EAD15960E9E76FF0A8
