:020000040000FA
:10000000383D0020A10C0000A90C0000AB0C000042
:10001000AD0C0000AF0C0000B10C0000B30C0000F0
:10002000000000000000000000000000B50C00000F
:10003000B70C000000000000B90C0000BB0C000071
:10004000000000000000000000000000BD0C0000E7
:1000500000000000BD0C00000000000000000000D7
:10006000BD0C0000BD0C0000BD0C0000BD0C00006C
:1000700000000000BD0C0000BD0C0000BD0C000025
:10008000BD0C0000BD0C00000000000000000000DE
:10009000BD0C0000BD0C00000000000000000000CE
:1000A000BD0C00000000000000000000BD0C0000BE
:1000B000BD0C0000BD0C0000BD0C0000BD0C00001C
:1000C000BD0C0000BD0C0000BD0C0000BD0C00000C
:1000D000BD0C000000000000BD0C0000000000008E
:1000E000BD0C000000000000BD0C0000000000007E
:1000F000BD0C000000000000000000000000000037
:1001000000000000BD0C0000000000000000000026
:1001100000000000000000000000000000000000DF
:1001200000000000BD0C0000000000000000000006
:1001300000000000000000000000000000000000BF
:10014000BD0C0000000000000000000000000000E6
:10015000000000000000000000000000000000009F
:10016000000000000000000000000000000000008F
:10017000000000000000000000000000000000007F
:10018000000000000000000000000000000000006F
:10040000DFF80CD000F08CFC004800471504000019
:10041000383D002080B58EB000200D900B9000F08C
:10042000A9FB6846DDF82CE0C0F800E040F66F510B
:10043000C0F2000140F2C802C2F2000201204FF4F3
:1004400080630A90099300F035FB69460B9A0A60B5
:1004500040F68551C0F2000140F2C842C2F20002EB
:10046000022308901846DDF824E00793734600F055
:1004700021FB69460B9A0A6040F67B51C0F20001ED
:1004800040F6C802C2F200020A9B06901846099B79
:1004900000F0B2FA69460B9A0A6040F69151C0F238
:1004A000000140F6C842C2F20002079B05901846C0
:1004B000099B00F0A1FA69460B9A0A6040F69B512D
:1004C000C0F2000141F2C802C2F20002032304900C
:1004D0001846099B00F090FA40F66251C0F2000104
:1004E0000B9A0390104600F00DFA0290FFE70120EE
:1004F0000C90FFE70C98022824D8FFE70C9841F6EF
:10050000D041C2F20001642200F01EF841F6CC4155
:10051000C2F200010860086801280EDBFFE70C98B2
:1005200041F6CC41C2F200010A6841F6D041C2F264
:10053000000100F0CDF80190FFE7FFE70C980130D3
:100540000C90D7E7D3E7000080B590B013468C46F7
:1005500086460F900E910D920893CDF81CC0CDF8F1
:1005600018E000F0B3F80F9840F20401C2F2000165
:10057000783100EB400001EBC00000690A900F9851
:1005800000EB400001EBC000C068099000200B9018
:100590000A98099988424EDDFFE70F9800EB40006A
:1005A00040F20401C2F2000101EBC000D0F880006B
:1005B0000A99401A0C900C980D99884203DAFFE7CB
:1005C0000C98059002E00D980590FFE705980C90B7
:1005D0000E980F9940F20402C2F20002783201EB49
:1005E000410102EBC10149680A9B19440C9B04922A
:1005F0001A4600F083FB0C990B9A11440B910C994D
:100600000E9A11440E910C990D9A511A0D910C9954
:100610000A9A11440A910A990F9A02EB4202049B2A
:1006200003EBC20292689142039003D1FFE70020DE
:100630000A90FFE7FFE709980A99401A0C900C9876
:100640000D99884203DAFFE70C98029002E00D98BA
:100650000290FFE702980C900C98012822DBFFE73C
:100660000E980F9901EB410140F20402C2F2000220
:1006700002EBC101C96F0A9A11440C9A00F03EFBCB
:100680000C990B9A11440B910C990E9A11440E91EE
:100690000C990D9A511A0D910C990A9A11440A91CC
:1006A0000190FFE70B9800280DD0FFE70A980F99FB
:1006B00001EB410140F20402C2F2000202EBC1016F
:1006C000C1F88800FFE70B9810B080BD704700BFED
:1006D00080B58EB013468C4686460C900B910A92DC
:1006E0000693CDF814C0CDF810E0FFF7EFFF0C989B
:1006F00000EB400040F20401C2F2000101EBC00037
:10070000C06A00F00300022845D0FFE70C9800EB18
:10071000400040F20401C2F20001183101EBC000B8
:100720000069079007980C9A02EB420201EBC201A4
:10073000C968401A013809900998B0F1FF3F0EDCF2
:10074000FFE70C9800EB400040F20401C2F2000108
:1007500001EBC000006A099908440990FFE70A9874
:100760000999884216DDFFE70C9800EB400040F243
:100770000401C2F2000101EBC00090F82C008007D8
:10078000002803D1FFE700200D90B7E009980A90F8
:10079000FFE7FFE7FFE70A98002803D1FFE7002003
:1007A0000D90ABE000200890FFE70C9800EB4000B4
:1007B00040F20401C2F20001183101EBC0000069EF
:1007C000079007980C9A02EB420201EBC201C9683C
:1007D000401A013809900998B0F1FF3F0EDCFFE79D
:1007E0000C9800EB400040F20401C2F2000101EB62
:1007F000C000006A099908440990FFE709980C991C
:1008000001EB410140F20402C2F2000202EBC1011D
:100810000A6A496A511A884203DAFFE70998039085
:100820000DE00C9800EB400040F20401C2F2000120
:1008300001EBC000016A406A081A0390FFE70398C1
:10084000099009980A99884203DAFFE7099802900B
:1008500002E00A980290FFE7029809900C9840F293
:100860000401C2F20001183100EB400001EBC000AE
:100870004268C06810440B9A099B019111461A46C0
:1008800000F03CFA0999089A1144089109990B9AC9
:1008900011440B9109990A9A511A0A9109990C9AD3
:1008A00002EB4202019B03EBC202D2F80CE071445E
:1008B000D1600C9901EB410103EBC101C9680C9AAD
:1008C00002EB420203EBC2029268914200900CD10B
:1008D000FFE70C9800EB400040F20401C2F2000177
:1008E00001EBC00000214162FFE7FFE70A98002802
:1008F0007FF45BAFFFE708980D90FFE70D980EB00F
:1009000080BD00BF80B586B00A46034605900491BD
:1009100004980292019300F009F803900598049955
:10092000039AFFF7D5FE06B080BD00BF84B0014634
:1009300002900020019002980028009103D1FFE767
:100940000020039014E0FFE702980078002801D10E
:10095000FFE70AE00198013001900298013002900F
:10096000FFE701200028EFD1FFE701980390FFE7A0
:10097000039804B0704700BF80B584B000200DF12B
:100980000B010122FFF7E0FD01900198012804D13D
:10099000FFE79DF80B00039003E04FF0FF3003905A
:1009A000FFE7039804B080BD80B582B0FFE7FFF792
:1009B000E3FF0190FFE701980028F8DBFFE70198CB
:1009C00002B080BD80B582B0FFF780FE40F2040E19
:1009D000C2F2000EDEF8880000900098DEF884E095
:1009E000704503D0FFE70120019002E00020019054
:1009F000FFE7019802B080BD70B58AB0DDF838C05D
:100A00009E4614460D4606460890079106920593A9
:100A1000CDF810E0039402950196CDF800C0FFF7E1
:100A200055FE089840F20401C2F2000109698842AB
:100A300039D2FFE70898002827D0FFE707980899E0
:100A400001EB410140F20402C2F20002183242F806
:100A500031000698089901EB410102EBC1014860A1
:100A60000598089901EB410102EBC10188600898E3
:100A700000EB400002EBC00000210161089800EB90
:100A8000400002EBC000C160FFE70E98089901EB3F
:100A9000410140F20402C2F2000202EBC101C8624D
:100AA0000020099003E04FF0FF300990FFE709981C
:100AB0000AB070BD70B58AB0DDF838C09E461446E5
:100AC0000D4606460890079106920593CDF810E072
:100AD000039402950196CDF800C0FFF7F7FD089842
:100AE00040F20401C2F20001496988423AD2FFE7AC
:100AF0000898002827D0FFE70798089901EB4101E3
:100B000040F20402C2F20002783242F83100069844
:100B1000089901EB410102EBC10148600598089971
:100B200001EB410102EBC1018860089800EB400035
:100B300002EBC00000210161089800EB400002EBCD
:100B4000C000C160FFE70E98089901EB410140F237
:100B50000402C2F2000202EBC101C1F88C000020C5
:100B6000099003E04FF0FF300990FFE709980AB0C1
:100B700070BD00BF80B5FFF7A9FD80BD80B584B012
:100B800001468DF80F00FF208DF80D009DF80F0035
:100B90000928029106DCFFE79DF80F0030308DF840
:100BA0000E000CE09DF80F000F2806DCFFE79DF813
:100BB0000F0037308DF80E0000E00FE0FFE79DF8E2
:100BC0000F0041F2C841C2F20001087000200DF18F
:100BD0000D010222FFF77CFD0190FFE704B080BD0C
:100BE00080B58AB00A4603468DF823000791FF209E
:100BF0008DF81A009DF8230009280492039306DC5F
:100C0000FFE79DF8230030308DF81B000FE09DF8C2
:100C100023000F2806DCFFE79DF8230037308DF80E
:100C20001B0003E04FF0FF30099035E0FFE70020A4
:100C30000DF11A0102220290FFF74AFD0799029A6C
:100C400001901046FFF75EFE05909DF823000928ED
:100C500009DCFFE741F2C840C2F200000078303002
:100C60008DF81B000EE09DF823000F2809DCFFE73C
:100C700041F2C840C2F20000007837308DF81B0006
:100C8000FFE7FFE700200DF11A010222FFF720FD28
:100C9000059909910090FFE709980AB080BD00000E
:100CA0000748804707480047FEE7FEE7FEE7FEE704
:100CB000FEE7FEE7FEE7FEE7FEE7FEE7FEE70000F1
:100CC000DD0C00000104000040F20000C2F2000050
:100CD00049F20001C0F2D0310160704780B54EF694
:100CE0008850CEF20000016841F470010160BFF34A
:100CF0004F8FBFF36F8FFFF7E7FF80BD40EA01031F
:100D00009B0703D009E008C9121F08C0042AFAD2C1
:100D100003E011F8013B00F8013B521EF9D2704785
:100D2000064C074D06E0E06840F0010394E8070038
:100D300098471034AC42F6D3FFF766FBB00D0000C5
:100D4000D00D000002E008C8121F08C1002AFAD125
:100D500070477047002001E001C1121F002AFBD13B
:100D6000704748656C6C6F20576F726C642100444B
:100D70006F776E42756666657231005570427566B2
:100D80006665723100446F776E42756666657232D1
:100D90000055704275666665723200557042756620
:100DA00066657233005465726D696E616C00000097
:100DB000D00D000000000020C8000000440D00001D
:100DC000980E0000C8000020703C0000540D000088
:100DD0000090D003534547474552205254540000D9
:100DE000000000000400000003000000A50D00004A
:100DF000C9180020000400000000000000000000EE
:100E000000000000000000000000000000000000E2
:100E100000000000000000000000000000000000D2
:100E200000000000000000000000000000000000C2
:100E300000000000000000000000000000000000B2
:100E4000000000000000000000000000A50D0000F0
:100E5000C914002000040000000000000000000091
:100E60000000000000000000000000000000000082
:100E70000000000000000000000000000000000072
:100E80000000000000000000000000000000000062
:080E900000000000000000005A
:0400000500000401F2
:00000001FF
